{
  "contractName": "Crowdsale",
  "abi": [
    {
      "constant": true,
      "inputs": [],
      "name": "rate",
      "outputs": [
        {
          "name": "",
          "type": "uint256"
        }
      ],
      "payable": false,
      "stateMutability": "view",
      "type": "function"
    },
    {
      "constant": true,
      "inputs": [],
      "name": "endTime",
      "outputs": [
        {
          "name": "",
          "type": "uint256"
        }
      ],
      "payable": false,
      "stateMutability": "view",
      "type": "function"
    },
    {
      "constant": true,
      "inputs": [],
      "name": "weiRaised",
      "outputs": [
        {
          "name": "",
          "type": "uint256"
        }
      ],
      "payable": false,
      "stateMutability": "view",
      "type": "function"
    },
    {
      "constant": true,
      "inputs": [],
      "name": "wallet",
      "outputs": [
        {
          "name": "",
          "type": "address"
        }
      ],
      "payable": false,
      "stateMutability": "view",
      "type": "function"
    },
    {
      "constant": true,
      "inputs": [],
      "name": "startTime",
      "outputs": [
        {
          "name": "",
          "type": "uint256"
        }
      ],
      "payable": false,
      "stateMutability": "view",
      "type": "function"
    },
    {
      "constant": true,
      "inputs": [],
      "name": "owner",
      "outputs": [
        {
          "name": "",
          "type": "address"
        }
      ],
      "payable": false,
      "stateMutability": "view",
      "type": "function"
    },
    {
      "constant": false,
      "inputs": [
        {
          "name": "newOwner",
          "type": "address"
        }
      ],
      "name": "transferOwnership",
      "outputs": [],
      "payable": false,
      "stateMutability": "nonpayable",
      "type": "function"
    },
    {
      "constant": true,
      "inputs": [],
      "name": "token",
      "outputs": [
        {
          "name": "",
          "type": "address"
        }
      ],
      "payable": false,
      "stateMutability": "view",
      "type": "function"
    },
    {
      "inputs": [
        {
          "name": "_startTime",
          "type": "uint256"
        },
        {
          "name": "_endTime",
          "type": "uint256"
        },
        {
          "name": "_rate",
          "type": "uint256"
        },
        {
          "name": "_wallet",
          "type": "address"
        }
      ],
      "payable": false,
      "stateMutability": "nonpayable",
      "type": "constructor"
    },
    {
      "payable": true,
      "stateMutability": "payable",
      "type": "fallback"
    },
    {
      "anonymous": false,
      "inputs": [
        {
          "indexed": true,
          "name": "purchaser",
          "type": "address"
        },
        {
          "indexed": true,
          "name": "beneficiary",
          "type": "address"
        },
        {
          "indexed": false,
          "name": "value",
          "type": "uint256"
        },
        {
          "indexed": false,
          "name": "amount",
          "type": "uint256"
        }
      ],
      "name": "TokenPurchase",
      "type": "event"
    },
    {
      "anonymous": false,
      "inputs": [
        {
          "indexed": true,
          "name": "previousOwner",
          "type": "address"
        },
        {
          "indexed": true,
          "name": "newOwner",
          "type": "address"
        }
      ],
      "name": "OwnershipTransferred",
      "type": "event"
    },
    {
      "constant": false,
      "inputs": [
        {
          "name": "_endTime",
          "type": "uint256"
        }
      ],
      "name": "extendEndTime",
      "outputs": [],
      "payable": true,
      "stateMutability": "payable",
      "type": "function"
    },
    {
      "constant": false,
      "inputs": [
        {
          "name": "beneficiary",
          "type": "address"
        }
      ],
      "name": "buyTokens",
      "outputs": [],
      "payable": true,
      "stateMutability": "payable",
      "type": "function"
    },
    {
      "constant": true,
      "inputs": [],
      "name": "hasEnded",
      "outputs": [
        {
          "name": "",
          "type": "bool"
        }
      ],
      "payable": false,
      "stateMutability": "view",
      "type": "function"
    }
  ],
  "bytecode": "0x608060405234801561001057600080fd5b5060405160808061108b833981016040908152815160208301519183015160609093015160008054600160a060020a031916331790559092908383101561005657600080fd5b6000821161006357600080fd5b600160a060020a038116151561007857600080fd5b6100896401000000006100cb810204565b60018054600160a060020a0319908116600160a060020a0393841617909155600295909555600393909355600591909155600480549093169116179055610107565b60006100d56100f7565b604051809103906000f0801580156100f1573d6000803e3d6000fd5b50905090565b604051610a3f8061064c83390190565b610536806101166000396000f3006080604052600436106100ae5763ffffffff7c01000000000000000000000000000000000000000000000000000000006000350416632c4e722e81146100b95780633197cbb6146100e05780634042b66f146100f5578063521eb2731461010a57806378e979251461013b57806388770cb0146101505780638da5cb5b1461015b578063ec8ac4d814610170578063ecb70fb714610184578063f2fde38b146101ad578063fc0c546a146101ce575b6100b7336101e3565b005b3480156100c557600080fd5b506100ce61032e565b60408051918252519081900360200190f35b3480156100ec57600080fd5b506100ce610334565b34801561010157600080fd5b506100ce61033a565b34801561011657600080fd5b5061011f610340565b60408051600160a060020a039092168252519081900360200190f35b34801561014757600080fd5b506100ce61034f565b6100b7600435610355565b34801561016757600080fd5b5061011f61039f565b6100b7600160a060020a03600435166101e3565b34801561019057600080fd5b506101996103ae565b604080519115158252519081900360200190f35b3480156101b957600080fd5b506100b7600160a060020a03600435166103b6565b3480156101da57600080fd5b5061011f61044a565b600080600160a060020a03831615156101fb57600080fd5b610203610459565b151561020e57600080fd5b60055434925061022590839063ffffffff61048916565b60065490915061023b908363ffffffff6104bf16565b600655600154604080517f40c10f19000000000000000000000000000000000000000000000000000000008152600160a060020a03868116600483015260248201859052915191909216916340c10f199160448083019260209291908290030181600087803b1580156102ad57600080fd5b505af11580156102c1573d6000803e3d6000fd5b505050506040513d60208110156102d757600080fd5b505060408051838152602081018390528151600160a060020a0386169233927f623b3804fa71d67900d064613da8f94b9617215ee90799290593e1745087ad18929081900390910190a36103296104ce565b505050565b60055481565b60035481565b60065481565b600454600160a060020a031681565b60025481565b600054600160a060020a0316331461036c57600080fd5b6103746103ae565b1561037e57600080fd5b600354421061038c57600080fd5b600354811161039a57600080fd5b600355565b600054600160a060020a031681565b600354421190565b600054600160a060020a031633146103cd57600080fd5b600160a060020a03811615156103e257600080fd5b60008054604051600160a060020a03808516939216917f8be0079c531659141344cd1fd0a4f28419497f9722a3daafe3b4186f6b6457e091a36000805473ffffffffffffffffffffffffffffffffffffffff1916600160a060020a0392909216919091179055565b600154600160a060020a031681565b6000806000600254421015801561047257506003544211155b9150503415158180156104825750805b9250505090565b60008083151561049c57600091506104b8565b508282028284828115156104ac57fe5b04146104b457fe5b8091505b5092915050565b6000828201838110156104b457fe5b600454604051600160a060020a03909116903480156108fc02916000818181858888f19350505050158015610507573d6000803e3d6000fd5b505600a165627a7a723058206a3bfaf8a0c069cef6dfad26c3b187aa09ef57221972bdbe74c0dcb8c27bdb040029608060405260038054600160a860020a03191633179055610a1a806100256000396000f3006080604052600436106100c45763ffffffff7c010000000000000000000000000000000000000000000000000000000060003504166305d2035b81146100c9578063095ea7b3146100f257806318160ddd1461011657806323b872dd1461013d57806340c10f1914610167578063661884631461018b57806370a08231146101af5780637d64bcb4146101d05780638da5cb5b146101e5578063a9059cbb14610216578063d73dd6231461023a578063dd62ed3e1461025e578063f2fde38b14610285575b600080fd5b3480156100d557600080fd5b506100de6102a8565b604080519115158252519081900360200190f35b3480156100fe57600080fd5b506100de600160a060020a03600435166024356102c9565b34801561012257600080fd5b5061012b61032f565b60408051918252519081900360200190f35b34801561014957600080fd5b506100de600160a060020a0360043581169060243516604435610335565b34801561017357600080fd5b506100de600160a060020a03600435166024356104ae565b34801561019757600080fd5b506100de600160a060020a03600435166024356105ca565b3480156101bb57600080fd5b5061012b600160a060020a03600435166106ba565b3480156101dc57600080fd5b506100de6106d5565b3480156101f157600080fd5b506101fa61077b565b60408051600160a060020a039092168252519081900360200190f35b34801561022257600080fd5b506100de600160a060020a036004351660243561078a565b34801561024657600080fd5b506100de600160a060020a036004351660243561086d565b34801561026a57600080fd5b5061012b600160a060020a0360043581169060243516610906565b34801561029157600080fd5b506102a6600160a060020a0360043516610931565b005b60035474010000000000000000000000000000000000000000900460ff1681565b336000818152600260209081526040808320600160a060020a038716808552908352818420869055815186815291519394909390927f8c5be1e5ebec7d5bd14f71427d1e84f3dd0314c0f7b2291e5b200ac8c7c3b925928290030190a350600192915050565b60005481565b6000600160a060020a038316151561034c57600080fd5b600160a060020a03841660009081526001602052604090205482111561037157600080fd5b600160a060020a03841660009081526002602090815260408083203384529091529020548211156103a157600080fd5b600160a060020a0384166000908152600160205260409020546103ca908363ffffffff6109c616565b600160a060020a0380861660009081526001602052604080822093909355908516815220546103ff908363ffffffff6109d816565b600160a060020a038085166000908152600160209081526040808320949094559187168152600282528281203382529091522054610443908363ffffffff6109c616565b600160a060020a03808616600081815260026020908152604080832033845282529182902094909455805186815290519287169391927fddf252ad1be2c89b69c2b068fc378daa952ba7f163c4a11628f55a4df523b3ef929181900390910190a35060019392505050565b600354600090600160a060020a031633146104c857600080fd5b60035474010000000000000000000000000000000000000000900460ff16156104f057600080fd5b600054610503908363ffffffff6109d816565b6000908155600160a060020a03841681526001602052604090205461052e908363ffffffff6109d816565b600160a060020a038416600081815260016020908152604091829020939093558051858152905191927f0f6798a560793a54c3bcfe86a93cde1e73087d944c0ea20544137d412139688592918290030190a2604080518381529051600160a060020a038516916000917fddf252ad1be2c89b69c2b068fc378daa952ba7f163c4a11628f55a4df523b3ef9181900360200190a350600192915050565b336000908152600260209081526040808320600160a060020a03861684529091528120548083111561061f57336000908152600260209081526040808320600160a060020a0388168452909152812055610654565b61062f818463ffffffff6109c616565b336000908152600260209081526040808320600160a060020a03891684529091529020555b336000818152600260209081526040808320600160a060020a0389168085529083529281902054815190815290519293927f8c5be1e5ebec7d5bd14f71427d1e84f3dd0314c0f7b2291e5b200ac8c7c3b925929181900390910190a35060019392505050565b600160a060020a031660009081526001602052604090205490565b600354600090600160a060020a031633146106ef57600080fd5b60035474010000000000000000000000000000000000000000900460ff161561071757600080fd5b6003805474ff00000000000000000000000000000000000000001916740100000000000000000000000000000000000000001790556040517fae5184fba832cb2b1f702aca6117b8d265eaf03ad33eb133f19dde0f5920fa0890600090a150600190565b600354600160a060020a031681565b6000600160a060020a03831615156107a157600080fd5b336000908152600160205260409020548211156107bd57600080fd5b336000908152600160205260409020546107dd908363ffffffff6109c616565b3360009081526001602052604080822092909255600160a060020a0385168152205461080f908363ffffffff6109d816565b600160a060020a0384166000818152600160209081526040918290209390935580518581529051919233927fddf252ad1be2c89b69c2b068fc378daa952ba7f163c4a11628f55a4df523b3ef9281900390910190a350600192915050565b336000908152600260209081526040808320600160a060020a03861684529091528120546108a1908363ffffffff6109d816565b336000818152600260209081526040808320600160a060020a0389168085529083529281902085905580519485525191937f8c5be1e5ebec7d5bd14f71427d1e84f3dd0314c0f7b2291e5b200ac8c7c3b925929081900390910190a350600192915050565b600160a060020a03918216600090815260026020908152604080832093909416825291909152205490565b600354600160a060020a0316331461094857600080fd5b600160a060020a038116151561095d57600080fd5b600354604051600160a060020a038084169216907f8be0079c531659141344cd1fd0a4f28419497f9722a3daafe3b4186f6b6457e090600090a36003805473ffffffffffffffffffffffffffffffffffffffff1916600160a060020a0392909216919091179055565b6000828211156109d257fe5b50900390565b6000828201838110156109e757fe5b93925050505600a165627a7a72305820a9ebc37c2992b48179ea2e0606b63817ab2745d7e5b41e5fca6f9de0c9d78e430029",
  "source": "pragma solidity ^0.4.18;\r\n\r\nimport '../token/MintableToken.sol';\r\nimport '../math/SafeMath.sol';\r\nimport '../ownership/Ownable.sol';\r\n\r\n/**\r\n * @title Crowdsale\r\n * @dev Crowdsale is a base contract for managing a token crowdsale.\r\n * Crowdsales have a start and end timestamps, where investors can make\r\n * token purchases and the crowdsale will assign them tokens based\r\n * on a token per ETH rate. Funds collected are forwarded to a wallet\r\n * as they arrive.\r\n */\r\ncontract Crowdsale is Ownable {\r\n  using SafeMath for uint256;\r\n\r\n  // The token being sold\r\n  MintableToken public token;\r\n\r\n  // start and end timestamps where investments are allowed (both inclusive)\r\n  uint256 public startTime;\r\n  uint256 public endTime;\r\n\r\n  // address where funds are collected\r\n  address public wallet;\r\n\r\n  // how many token units a buyer gets per wei\r\n  uint256 public rate;\r\n\r\n  // amount of raised money in wei\r\n  uint256 public weiRaised;\r\n\r\n  /**\r\n   * event for token purchase logging\r\n   * @param purchaser who paid for the tokens\r\n   * @param beneficiary who got the tokens\r\n   * @param value weis paid for purchase\r\n   * @param amount amount of tokens purchased\r\n   */\r\n  event TokenPurchase(address indexed purchaser, address indexed beneficiary, uint256 value, uint256 amount);\r\n\r\n\r\n  function Crowdsale(uint256 _startTime, uint256 _endTime, uint256 _rate, address _wallet) public {\r\n    //require(_startTime >= now);\r\n    require(_endTime >= _startTime);\r\n    require(_rate > 0);\r\n    require(_wallet != address(0));\r\n\r\n    token = createTokenContract();\r\n    startTime = _startTime;\r\n    endTime = _endTime;\r\n    rate = _rate;\r\n    wallet = _wallet;\r\n  }\r\n\r\n  //Only the owner can extend the endTime\r\n  function extendEndTime(uint256 _endTime) onlyOwner public  payable{\r\n      require(hasEnded() == false);\r\n      require(endTime > now); \r\n      require(endTime < _endTime);\r\n      endTime = _endTime;\r\n  }\r\n\r\n  // creates the token to be sold.\r\n  // override this method to have crowdsale of a specific mintable token.\r\n  function createTokenContract() internal returns (MintableToken) {\r\n    return new MintableToken();\r\n  }\r\n\r\n\r\n  // fallback function can be used to buy tokens\r\n  function () external payable {\r\n    buyTokens(msg.sender);\r\n  }\r\n\r\n\r\n  // low level token purchase function\r\n  function buyTokens(address beneficiary) public payable {\r\n    require(beneficiary != address(0));\r\n    require(validPurchase());\r\n\r\n    uint256 weiAmount = msg.value;\r\n\r\n    // calculate token amount to be created\r\n    uint256 tokens = weiAmount.mul(rate);\r\n\r\n    // update state\r\n    weiRaised = weiRaised.add(weiAmount);\r\n\r\n    token.mint(beneficiary, tokens);\r\n    TokenPurchase(msg.sender, beneficiary, weiAmount, tokens);\r\n\r\n    forwardFunds();\r\n  }\r\n\r\n  // send ether to the fund collection wallet\r\n  // override to create custom fund forwarding mechanisms\r\n  function forwardFunds() internal {\r\n    wallet.transfer(msg.value);\r\n  }\r\n\r\n  // @return true if the transaction can buy tokens\r\n  function validPurchase() internal view returns (bool) {\r\n    bool withinPeriod = now >= startTime && now <= endTime;\r\n    bool nonZeroPurchase = msg.value != 0;\r\n    return withinPeriod && nonZeroPurchase;\r\n  }\r\n\r\n  // @return true if crowdsale event has ended\r\n  function hasEnded() public view returns (bool) {\r\n    return now > endTime;\r\n  }\r\n\r\n\r\n}\r\n",
  "sourcePath": "D:\\CrowdsaleContract\\node_modules\\zeppelin-solidity\\contracts\\crowdsale\\Crowdsale.sol",
  "compiler": {
    "name": "solc",
    "version": "0.4.24+commit.e67f0147.Emscripten.clang"
  },
  "schemaVersion": "2.0.0",
  "updatedAt": "2018-07-18T01:51:06.843Z"
}