{
  "contractName": "HashnodeCrowdsale",
  "abi": [
    {
      "constant": true,
      "inputs": [],
      "name": "mintingFinished",
      "outputs": [
        {
          "name": "",
          "type": "bool"
        }
      ],
      "payable": false,
      "stateMutability": "view",
      "type": "function"
    },
    {
      "constant": true,
      "inputs": [],
      "name": "name",
      "outputs": [
        {
          "name": "",
          "type": "string"
        }
      ],
      "payable": false,
      "stateMutability": "view",
      "type": "function"
    },
    {
      "constant": false,
      "inputs": [
        {
          "name": "_spender",
          "type": "address"
        },
        {
          "name": "_value",
          "type": "uint256"
        }
      ],
      "name": "approve",
      "outputs": [
        {
          "name": "",
          "type": "bool"
        }
      ],
      "payable": false,
      "stateMutability": "nonpayable",
      "type": "function"
    },
    {
      "constant": true,
      "inputs": [],
      "name": "totalSupply",
      "outputs": [
        {
          "name": "",
          "type": "uint256"
        }
      ],
      "payable": false,
      "stateMutability": "view",
      "type": "function"
    },
    {
      "constant": false,
      "inputs": [
        {
          "name": "_from",
          "type": "address"
        },
        {
          "name": "_to",
          "type": "address"
        },
        {
          "name": "_value",
          "type": "uint256"
        }
      ],
      "name": "transferFrom",
      "outputs": [
        {
          "name": "",
          "type": "bool"
        }
      ],
      "payable": false,
      "stateMutability": "nonpayable",
      "type": "function"
    },
    {
      "constant": true,
      "inputs": [],
      "name": "rate",
      "outputs": [
        {
          "name": "",
          "type": "uint256"
        }
      ],
      "payable": false,
      "stateMutability": "view",
      "type": "function"
    },
    {
      "constant": true,
      "inputs": [],
      "name": "decimals",
      "outputs": [
        {
          "name": "",
          "type": "uint8"
        }
      ],
      "payable": false,
      "stateMutability": "view",
      "type": "function"
    },
    {
      "constant": true,
      "inputs": [],
      "name": "endTime",
      "outputs": [
        {
          "name": "",
          "type": "uint256"
        }
      ],
      "payable": false,
      "stateMutability": "view",
      "type": "function"
    },
    {
      "constant": true,
      "inputs": [],
      "name": "cap",
      "outputs": [
        {
          "name": "",
          "type": "uint256"
        }
      ],
      "payable": false,
      "stateMutability": "view",
      "type": "function"
    },
    {
      "constant": true,
      "inputs": [],
      "name": "goal",
      "outputs": [
        {
          "name": "",
          "type": "uint256"
        }
      ],
      "payable": false,
      "stateMutability": "view",
      "type": "function"
    },
    {
      "constant": true,
      "inputs": [],
      "name": "weiRaised",
      "outputs": [
        {
          "name": "",
          "type": "uint256"
        }
      ],
      "payable": false,
      "stateMutability": "view",
      "type": "function"
    },
    {
      "constant": false,
      "inputs": [
        {
          "name": "_to",
          "type": "address"
        },
        {
          "name": "_amount",
          "type": "uint256"
        }
      ],
      "name": "mint",
      "outputs": [
        {
          "name": "",
          "type": "bool"
        }
      ],
      "payable": false,
      "stateMutability": "nonpayable",
      "type": "function"
    },
    {
      "constant": false,
      "inputs": [],
      "name": "finalize",
      "outputs": [],
      "payable": false,
      "stateMutability": "nonpayable",
      "type": "function"
    },
    {
      "constant": true,
      "inputs": [],
      "name": "tokensForEcosystem",
      "outputs": [
        {
          "name": "",
          "type": "uint256"
        }
      ],
      "payable": false,
      "stateMutability": "view",
      "type": "function"
    },
    {
      "constant": true,
      "inputs": [],
      "name": "wallet",
      "outputs": [
        {
          "name": "",
          "type": "address"
        }
      ],
      "payable": false,
      "stateMutability": "view",
      "type": "function"
    },
    {
      "constant": true,
      "inputs": [],
      "name": "totalTokensForSale",
      "outputs": [
        {
          "name": "",
          "type": "uint256"
        }
      ],
      "payable": false,
      "stateMutability": "view",
      "type": "function"
    },
    {
      "constant": false,
      "inputs": [
        {
          "name": "_spender",
          "type": "address"
        },
        {
          "name": "_subtractedValue",
          "type": "uint256"
        }
      ],
      "name": "decreaseApproval",
      "outputs": [
        {
          "name": "",
          "type": "bool"
        }
      ],
      "payable": false,
      "stateMutability": "nonpayable",
      "type": "function"
    },
    {
      "constant": true,
      "inputs": [
        {
          "name": "_owner",
          "type": "address"
        }
      ],
      "name": "balanceOf",
      "outputs": [
        {
          "name": "balance",
          "type": "uint256"
        }
      ],
      "payable": false,
      "stateMutability": "view",
      "type": "function"
    },
    {
      "constant": true,
      "inputs": [],
      "name": "startTime",
      "outputs": [
        {
          "name": "",
          "type": "uint256"
        }
      ],
      "payable": false,
      "stateMutability": "view",
      "type": "function"
    },
    {
      "constant": true,
      "inputs": [],
      "name": "goalReached",
      "outputs": [
        {
          "name": "",
          "type": "bool"
        }
      ],
      "payable": false,
      "stateMutability": "view",
      "type": "function"
    },
    {
      "constant": false,
      "inputs": [],
      "name": "finishMinting",
      "outputs": [
        {
          "name": "",
          "type": "bool"
        }
      ],
      "payable": false,
      "stateMutability": "nonpayable",
      "type": "function"
    },
    {
      "constant": false,
      "inputs": [
        {
          "name": "_endTime",
          "type": "uint256"
        }
      ],
      "name": "extendEndTime",
      "outputs": [],
      "payable": true,
      "stateMutability": "payable",
      "type": "function"
    },
    {
      "constant": true,
      "inputs": [],
      "name": "isFinalized",
      "outputs": [
        {
          "name": "",
          "type": "bool"
        }
      ],
      "payable": false,
      "stateMutability": "view",
      "type": "function"
    },
    {
      "constant": true,
      "inputs": [],
      "name": "owner",
      "outputs": [
        {
          "name": "",
          "type": "address"
        }
      ],
      "payable": false,
      "stateMutability": "view",
      "type": "function"
    },
    {
      "constant": true,
      "inputs": [],
      "name": "symbol",
      "outputs": [
        {
          "name": "",
          "type": "string"
        }
      ],
      "payable": false,
      "stateMutability": "view",
      "type": "function"
    },
    {
      "constant": true,
      "inputs": [],
      "name": "tokensForBountyAndAirDrop",
      "outputs": [
        {
          "name": "",
          "type": "uint256"
        }
      ],
      "payable": false,
      "stateMutability": "view",
      "type": "function"
    },
    {
      "constant": false,
      "inputs": [
        {
          "name": "_to",
          "type": "address"
        },
        {
          "name": "_value",
          "type": "uint256"
        }
      ],
      "name": "transfer",
      "outputs": [
        {
          "name": "",
          "type": "bool"
        }
      ],
      "payable": false,
      "stateMutability": "nonpayable",
      "type": "function"
    },
    {
      "constant": true,
      "inputs": [],
      "name": "totalWeiRaisedDuringPreICO",
      "outputs": [
        {
          "name": "",
          "type": "uint256"
        }
      ],
      "payable": false,
      "stateMutability": "view",
      "type": "function"
    },
    {
      "constant": false,
      "inputs": [],
      "name": "claimRefund",
      "outputs": [],
      "payable": false,
      "stateMutability": "nonpayable",
      "type": "function"
    },
    {
      "constant": true,
      "inputs": [],
      "name": "totalTokensForSaleDuringPreICO",
      "outputs": [
        {
          "name": "",
          "type": "uint256"
        }
      ],
      "payable": false,
      "stateMutability": "view",
      "type": "function"
    },
    {
      "constant": true,
      "inputs": [],
      "name": "stage",
      "outputs": [
        {
          "name": "",
          "type": "uint8"
        }
      ],
      "payable": false,
      "stateMutability": "view",
      "type": "function"
    },
    {
      "constant": false,
      "inputs": [
        {
          "name": "_spender",
          "type": "address"
        },
        {
          "name": "_addedValue",
          "type": "uint256"
        }
      ],
      "name": "increaseApproval",
      "outputs": [
        {
          "name": "",
          "type": "bool"
        }
      ],
      "payable": false,
      "stateMutability": "nonpayable",
      "type": "function"
    },
    {
      "constant": true,
      "inputs": [
        {
          "name": "_owner",
          "type": "address"
        },
        {
          "name": "_spender",
          "type": "address"
        }
      ],
      "name": "allowance",
      "outputs": [
        {
          "name": "",
          "type": "uint256"
        }
      ],
      "payable": false,
      "stateMutability": "view",
      "type": "function"
    },
    {
      "constant": true,
      "inputs": [],
      "name": "maxTokens",
      "outputs": [
        {
          "name": "",
          "type": "uint256"
        }
      ],
      "payable": false,
      "stateMutability": "view",
      "type": "function"
    },
    {
      "constant": false,
      "inputs": [
        {
          "name": "beneficiary",
          "type": "address"
        }
      ],
      "name": "buyTokens",
      "outputs": [],
      "payable": true,
      "stateMutability": "payable",
      "type": "function"
    },
    {
      "constant": true,
      "inputs": [],
      "name": "hasEnded",
      "outputs": [
        {
          "name": "",
          "type": "bool"
        }
      ],
      "payable": false,
      "stateMutability": "view",
      "type": "function"
    },
    {
      "constant": false,
      "inputs": [
        {
          "name": "newOwner",
          "type": "address"
        }
      ],
      "name": "transferOwnership",
      "outputs": [],
      "payable": false,
      "stateMutability": "nonpayable",
      "type": "function"
    },
    {
      "constant": true,
      "inputs": [],
      "name": "vault",
      "outputs": [
        {
          "name": "",
          "type": "address"
        }
      ],
      "payable": false,
      "stateMutability": "view",
      "type": "function"
    },
    {
      "constant": true,
      "inputs": [],
      "name": "token",
      "outputs": [
        {
          "name": "",
          "type": "address"
        }
      ],
      "payable": false,
      "stateMutability": "view",
      "type": "function"
    },
    {
      "constant": true,
      "inputs": [],
      "name": "tokensForTeam",
      "outputs": [
        {
          "name": "",
          "type": "uint256"
        }
      ],
      "payable": false,
      "stateMutability": "view",
      "type": "function"
    },
    {
      "inputs": [
        {
          "name": "_startTime",
          "type": "uint256"
        },
        {
          "name": "_endTime",
          "type": "uint256"
        },
        {
          "name": "_rate",
          "type": "uint256"
        },
        {
          "name": "_wallet",
          "type": "address"
        },
        {
          "name": "_goal",
          "type": "uint256"
        },
        {
          "name": "_cap",
          "type": "uint256"
        },
        {
          "name": "_maxTokens",
          "type": "uint256"
        },
        {
          "name": "_tokenForEcosystem",
          "type": "uint256"
        },
        {
          "name": "_tokenForTeam",
          "type": "uint256"
        },
        {
          "name": "_tokenForBountyAndAirdrop",
          "type": "uint256"
        },
        {
          "name": "_totalTokenForSale",
          "type": "uint256"
        },
        {
          "name": "_totalTokenForSaleDuringPreICO",
          "type": "uint256"
        },
        {
          "name": "_name",
          "type": "string"
        },
        {
          "name": "_symbol",
          "type": "string"
        }
      ],
      "payable": false,
      "stateMutability": "nonpayable",
      "type": "constructor"
    },
    {
      "payable": true,
      "stateMutability": "payable",
      "type": "fallback"
    },
    {
      "anonymous": false,
      "inputs": [
        {
          "indexed": false,
          "name": "text",
          "type": "string"
        }
      ],
      "name": "EthTransferred",
      "type": "event"
    },
    {
      "anonymous": false,
      "inputs": [
        {
          "indexed": false,
          "name": "text",
          "type": "string"
        }
      ],
      "name": "EthRefunded",
      "type": "event"
    },
    {
      "anonymous": false,
      "inputs": [
        {
          "indexed": true,
          "name": "to",
          "type": "address"
        },
        {
          "indexed": false,
          "name": "amount",
          "type": "uint256"
        }
      ],
      "name": "Mint",
      "type": "event"
    },
    {
      "anonymous": false,
      "inputs": [],
      "name": "MintFinished",
      "type": "event"
    },
    {
      "anonymous": false,
      "inputs": [],
      "name": "Finalized",
      "type": "event"
    },
    {
      "anonymous": false,
      "inputs": [
        {
          "indexed": true,
          "name": "purchaser",
          "type": "address"
        },
        {
          "indexed": true,
          "name": "beneficiary",
          "type": "address"
        },
        {
          "indexed": false,
          "name": "value",
          "type": "uint256"
        },
        {
          "indexed": false,
          "name": "amount",
          "type": "uint256"
        }
      ],
      "name": "TokenPurchase",
      "type": "event"
    },
    {
      "anonymous": false,
      "inputs": [
        {
          "indexed": true,
          "name": "previousOwner",
          "type": "address"
        },
        {
          "indexed": true,
          "name": "newOwner",
          "type": "address"
        }
      ],
      "name": "OwnershipTransferred",
      "type": "event"
    },
    {
      "anonymous": false,
      "inputs": [
        {
          "indexed": true,
          "name": "owner",
          "type": "address"
        },
        {
          "indexed": true,
          "name": "spender",
          "type": "address"
        },
        {
          "indexed": false,
          "name": "value",
          "type": "uint256"
        }
      ],
      "name": "Approval",
      "type": "event"
    },
    {
      "anonymous": false,
      "inputs": [
        {
          "indexed": true,
          "name": "from",
          "type": "address"
        },
        {
          "indexed": true,
          "name": "to",
          "type": "address"
        },
        {
          "indexed": false,
          "name": "value",
          "type": "uint256"
        }
      ],
      "name": "Transfer",
      "type": "event"
    },
    {
      "constant": false,
      "inputs": [
        {
          "name": "value",
          "type": "uint256"
        }
      ],
      "name": "setCrowdsaleStage",
      "outputs": [],
      "payable": false,
      "stateMutability": "nonpayable",
      "type": "function"
    },
    {
      "constant": false,
      "inputs": [
        {
          "name": "_teamFund",
          "type": "address"
        },
        {
          "name": "_ecosystemFund",
          "type": "address"
        },
        {
          "name": "_bountyFund",
          "type": "address"
        }
      ],
      "name": "finish",
      "outputs": [],
      "payable": false,
      "stateMutability": "nonpayable",
      "type": "function"
    }
  ],
  "bytecode": "0x6080604052600b805460ff19908116909155600d805460a060020a60ff02191690556010805490911660121761ff00191690553480156200003f57600080fd5b50604051620030e4380380620030e483398101604090815281516020830151918301516060840151608085015160a086015160c087015160e08801516101008901516101208a01516101408b01516101608c01516101808d01516101a08e015160038054600160a060020a031916331790559b9d9a9b999a98999798969795969495939492939192908101910189898f8f8f8f83831015620000e057600080fd5b60008211620000ee57600080fd5b600160a060020a03811615156200010457600080fd5b62000117640100000000620002b3810204565b60048054600160a060020a0319908116600160a060020a0393841617909155600595909555600693909355600891909155600780549093169116179055600081116200016257600080fd5b600a55600081116200017357600080fd5b600754600160a060020a031662000189620002f0565b600160a060020a03909116815260405190819003602001906000f080158015620001b7573d6000803e3d6000fd5b50600d8054600160a060020a031916600160a060020a0392909216919091179055600c55888a1115620001e957600080fd5b620001fd88640100000000620002e3810204565b6011556200021487640100000000620002e3810204565b6012556200022b86640100000000620002e3810204565b6013556200024285640100000000620002e3810204565b6014556200025984640100000000620002e3810204565b6015556200027083640100000000620002e3810204565b60165581516200028890600e90602085019062000301565b5080516200029e90600f90602084019062000301565b505050505050505050505050505050620003b4565b6000620002bf62000386565b604051809103906000f080158015620002dc573d6000803e3d6000fd5b5090505b90565b60105460ff16600a0a0290565b6040516105fe8062001ebd83390190565b828054600181600116156101000203166002900490600052602060002090601f016020900481019282601f106200034457805160ff191683800117855562000374565b8280016001018555821562000374579182015b828111156200037457825182559160200191906001019062000357565b506200038292915062000397565b5090565b604051610c2980620024bb83390190565b620002e091905b808211156200038257600081556001016200039e565b611af980620003c46000396000f3006080604052600436106101ea5763ffffffff60e060020a60003504166305d2035b811461038157806306fdde03146103aa578063095ea7b31461043457806318160ddd1461045857806323b872dd1461047f5780632c4e722e146104a9578063313ce567146104be5780633197cbb6146104e9578063355274ea146104fe57806340193883146105135780634042b66f1461052857806340c10f191461053d5780634bb278f3146105615780634c4cfc3b14610578578063521eb2731461058d57806360219c7b146105be57806366188463146105d357806370a08231146105f757806378e97925146106185780637d3d65221461062d5780637d64bcb4146106425780637e02bb0f1461065757806388770cb0146106845780638d4e40831461068f5780638da5cb5b146106a457806395d89b41146106b9578063a1865e6b146106ce578063a9059cbb146106e3578063a997f82f14610707578063abe8014a1461071f578063b5545a3c14610734578063c02aaea114610749578063c040e6b81461075e578063d73dd62314610797578063dd62ed3e146107bb578063e8315742146107e2578063ec8ac4d8146107f7578063ecb70fb71461080b578063f2fde38b14610820578063fbfa77cf14610841578063fc0c546a14610856578063fde83a341461086b575b60006102016008543461088090919063ffffffff16565b90506000601054610100900460ff16600181111561021b57fe5b1480156102a9575060165481600460009054906101000a9004600160a060020a0316600160a060020a03166318160ddd6040518163ffffffff1660e060020a028152600401602060405180830381600087803b15801561027a57600080fd5b505af115801561028e573d6000803e3d6000fd5b505050506040513d60208110156102a457600080fd5b505101115b156103405760405133903480156108fc02916000818181858888f193505050501580156102da573d6000803e3d6000fd5b506040805160208082526010908201527f50726549434f204c696d697420486974000000000000000000000000000000008183015290517fc0283f9c45b2118c7ec26e4f4bf06fc486f94a186fb38dc5dff372d9cb709d379181900360600190a161037e565b610349336108b6565b6000601054610100900460ff16600181111561036157fe5b141561037e5760175461037a903463ffffffff6109ef16565b6017555b50005b34801561038d57600080fd5b506103966109fe565b604080519115158252519081900360200190f35b3480156103b657600080fd5b506103bf610a1f565b6040805160208082528351818301528351919283929083019185019080838360005b838110156103f95781810151838201526020016103e1565b50505050905090810190601f1680156104265780820380516001836020036101000a031916815260200191505b509250505060405180910390f35b34801561044057600080fd5b50610396600160a060020a0360043516602435610aad565b34801561046457600080fd5b5061046d610b13565b60408051918252519081900360200190f35b34801561048b57600080fd5b50610396600160a060020a0360043581169060243516604435610b19565b3480156104b557600080fd5b5061046d610c92565b3480156104ca57600080fd5b506104d3610c98565b6040805160ff9092168252519081900360200190f35b3480156104f557600080fd5b5061046d610ca1565b34801561050a57600080fd5b5061046d610ca7565b34801561051f57600080fd5b5061046d610cad565b34801561053457600080fd5b5061046d610cb3565b34801561054957600080fd5b50610396600160a060020a0360043516602435610cb9565b34801561056d57600080fd5b50610576610dd5565b005b34801561058457600080fd5b5061046d610e4f565b34801561059957600080fd5b506105a2610e55565b60408051600160a060020a039092168252519081900360200190f35b3480156105ca57600080fd5b5061046d610e64565b3480156105df57600080fd5b50610396600160a060020a0360043516602435610e6a565b34801561060357600080fd5b5061046d600160a060020a0360043516610f5a565b34801561062457600080fd5b5061046d610f75565b34801561063957600080fd5b50610396610f7b565b34801561064e57600080fd5b50610396610f86565b34801561066357600080fd5b50610576600160a060020a036004358116906024358116906044351661102c565b6105766004356112bf565b34801561069b57600080fd5b50610396611309565b3480156106b057600080fd5b506105a2611312565b3480156106c557600080fd5b506103bf611321565b3480156106da57600080fd5b5061046d61137c565b3480156106ef57600080fd5b50610396600160a060020a0360043516602435611382565b34801561071357600080fd5b50610576600435611465565b34801561072b57600080fd5b5061046d611515565b34801561074057600080fd5b5061057661151b565b34801561075557600080fd5b5061046d6115bd565b34801561076a57600080fd5b506107736115c3565b6040518082600181111561078357fe5b60ff16815260200191505060405180910390f35b3480156107a357600080fd5b50610396600160a060020a03600435166024356115d1565b3480156107c757600080fd5b5061046d600160a060020a036004358116906024351661166a565b3480156107ee57600080fd5b5061046d611695565b610576600160a060020a03600435166108b6565b34801561081757600080fd5b5061039661169b565b34801561082c57600080fd5b50610576600160a060020a03600435166116bc565b34801561084d57600080fd5b506105a2611751565b34801561086257600080fd5b506105a2611760565b34801561087757600080fd5b5061046d61176f565b60008083151561089357600091506108af565b508282028284828115156108a357fe5b04146108ab57fe5b8091505b5092915050565b600080600160a060020a03831615156108ce57600080fd5b6108d6611775565b15156108e157600080fd5b6008543492506108f890839063ffffffff61088016565b60095490915061090e908363ffffffff6109ef16565b600955600480546040805160e060020a6340c10f19028152600160a060020a038781169482019490945260248101859052905192909116916340c10f19916044808201926020929091908290030181600087803b15801561096e57600080fd5b505af1158015610982573d6000803e3d6000fd5b505050506040513d602081101561099857600080fd5b505060408051838152602081018390528151600160a060020a0386169233927f623b3804fa71d67900d064613da8f94b9617215ee90799290593e1745087ad18929081900390910190a36109ea6117a8565b505050565b6000828201838110156108ab57fe5b600d5474010000000000000000000000000000000000000000900460ff1681565b600e805460408051602060026001851615610100026000190190941693909304601f81018490048402820184019092528181529291830182828015610aa55780601f10610a7a57610100808354040283529160200191610aa5565b820191906000526020600020905b815481529060010190602001808311610a8857829003601f168201915b505050505081565b336000818152600260209081526040808320600160a060020a038716808552908352818420869055815186815291519394909390927f8c5be1e5ebec7d5bd14f71427d1e84f3dd0314c0f7b2291e5b200ac8c7c3b925928290030190a350600192915050565b60005481565b6000600160a060020a0383161515610b3057600080fd5b600160a060020a038416600090815260016020526040902054821115610b5557600080fd5b600160a060020a0384166000908152600260209081526040808320338452909152902054821115610b8557600080fd5b600160a060020a038416600090815260016020526040902054610bae908363ffffffff61191316565b600160a060020a038086166000908152600160205260408082209390935590851681522054610be3908363ffffffff6109ef16565b600160a060020a038085166000908152600160209081526040808320949094559187168152600282528281203382529091522054610c27908363ffffffff61191316565b600160a060020a03808616600081815260026020908152604080832033845282529182902094909455805186815290519287169391927fddf252ad1be2c89b69c2b068fc378daa952ba7f163c4a11628f55a4df523b3ef929181900390910190a35060019392505050565b60085481565b60105460ff1681565b60065481565b600a5481565b600c5481565b60095481565b600354600090600160a060020a03163314610cd357600080fd5b600d5474010000000000000000000000000000000000000000900460ff1615610cfb57600080fd5b600054610d0e908363ffffffff6109ef16565b6000908155600160a060020a038416815260016020526040902054610d39908363ffffffff6109ef16565b600160a060020a038416600081815260016020908152604091829020939093558051858152905191927f0f6798a560793a54c3bcfe86a93cde1e73087d944c0ea20544137d412139688592918290030190a2604080518381529051600160a060020a038516916000917fddf252ad1be2c89b69c2b068fc378daa952ba7f163c4a11628f55a4df523b3ef9181900360200190a350600192915050565b600354600160a060020a03163314610dec57600080fd5b600b5460ff1615610dfc57600080fd5b610e0461169b565b1515610e0f57600080fd5b610e17611925565b6040517f6823b073d48d6e3a7d385eeb601452d680e74bb46afe3255a7d778f3a9b1768190600090a1600b805460ff19166001179055565b60125481565b600754600160a060020a031681565b60155481565b336000908152600260209081526040808320600160a060020a038616845290915281205480831115610ebf57336000908152600260209081526040808320600160a060020a0388168452909152812055610ef4565b610ecf818463ffffffff61191316565b336000908152600260209081526040808320600160a060020a03891684529091529020555b336000818152600260209081526040808320600160a060020a0389168085529083529281902054815190815290519293927f8c5be1e5ebec7d5bd14f71427d1e84f3dd0314c0f7b2291e5b200ac8c7c3b925929181900390910190a35060019392505050565b600160a060020a031660009081526001602052604090205490565b60055481565b600c54600954101590565b600354600090600160a060020a03163314610fa057600080fd5b600d5474010000000000000000000000000000000000000000900460ff1615610fc857600080fd5b600d805474ff00000000000000000000000000000000000000001916740100000000000000000000000000000000000000001790556040517fae5184fba832cb2b1f702aca6117b8d265eaf03ad33eb133f19dde0f5920fa0890600090a150600190565b6003546000908190600160a060020a0316331461104857600080fd5b600b5460ff161561105857600080fd5b60048054604080517f18160ddd0000000000000000000000000000000000000000000000000000000081529051600160a060020a03909216926318160ddd9282820192602092908290030181600087803b1580156110b557600080fd5b505af11580156110c9573d6000803e3d6000fd5b505050506040513d60208110156110df57600080fd5b505160115490925082106110f257600080fd5b81601554039050600081111561110b5760128054820190555b600480546013546040805160e060020a6340c10f19028152600160a060020a038a81169582019590955260248101929092525192909116916340c10f19916044808201926020929091908290030181600087803b15801561116b57600080fd5b505af115801561117f573d6000803e3d6000fd5b505050506040513d602081101561119557600080fd5b5050600480546012546040805160e060020a6340c10f19028152600160a060020a038981169582019590955260248101929092525192909116916340c10f19916044808201926020929091908290030181600087803b1580156111f757600080fd5b505af115801561120b573d6000803e3d6000fd5b505050506040513d602081101561122157600080fd5b5050600480546014546040805160e060020a6340c10f19028152600160a060020a038881169582019590955260248101929092525192909116916340c10f19916044808201926020929091908290030181600087803b15801561128357600080fd5b505af1158015611297573d6000803e3d6000fd5b505050506040513d60208110156112ad57600080fd5b506112b89050610dd5565b5050505050565b600354600160a060020a031633146112d657600080fd5b6112de61169b565b156112e857600080fd5b60065442106112f657600080fd5b600654811161130457600080fd5b600655565b600b5460ff1681565b600354600160a060020a031681565b600f805460408051602060026001851615610100026000190190941693909304601f81018490048402820184019092528181529291830182828015610aa55780601f10610a7a57610100808354040283529160200191610aa5565b60145481565b6000600160a060020a038316151561139957600080fd5b336000908152600160205260409020548211156113b557600080fd5b336000908152600160205260409020546113d5908363ffffffff61191316565b3360009081526001602052604080822092909255600160a060020a03851681522054611407908363ffffffff6109ef16565b600160a060020a0384166000818152600160209081526040918290209390935580518581529051919233927fddf252ad1be2c89b69c2b068fc378daa952ba7f163c4a11628f55a4df523b3ef9281900390910190a350600192915050565b600354600090600160a060020a0316331461147f57600080fd5b81151561148e5750600061149b565b816001141561149b575060015b6010805482919061ff0019166101008360018111156114b657fe5b02179055506000601054610100900460ff1660018111156114d357fe5b14156114e9576114e4600854611a16565b611511565b6001601054610100900460ff16600181111561150157fe5b1415611511576115116002611a16565b5050565b60175481565b600b5460ff16151561152c57600080fd5b611534610f7b565b1561153e57600080fd5b600d54604080517ffa89401a0000000000000000000000000000000000000000000000000000000081523360048201529051600160a060020a039092169163fa89401a9160248082019260009290919082900301818387803b1580156115a357600080fd5b505af11580156115b7573d6000803e3d6000fd5b50505050565b60165481565b601054610100900460ff1681565b336000908152600260209081526040808320600160a060020a0386168452909152812054611605908363ffffffff6109ef16565b336000818152600260209081526040808320600160a060020a0389168085529083529281902085905580519485525191937f8c5be1e5ebec7d5bd14f71427d1e84f3dd0314c0f7b2291e5b200ac8c7c3b925929081900390910190a350600192915050565b600160a060020a03918216600090815260026020908152604080832093909416825291909152205490565b60115481565b600a5460095460009111156116ae611a1b565b806116b65750805b91505090565b600354600160a060020a031633146116d357600080fd5b600160a060020a03811615156116e857600080fd5b600354604051600160a060020a038084169216907f8be0079c531659141344cd1fd0a4f28419497f9722a3daafe3b4186f6b6457e090600090a36003805473ffffffffffffffffffffffffffffffffffffffff1916600160a060020a0392909216919091179055565b600d54600160a060020a031681565b600454600160a060020a031681565b60135481565b600080600a54611790346009546109ef90919063ffffffff16565b1115905061179c611a23565b80156116b65750919050565b6000601054610100900460ff1660018111156117c057fe5b141561186557600754604051600160a060020a03909116903480156108fc02916000818181858888f193505050501580156117ff573d6000803e3d6000fd5b50604080516020808252601a908201527f666f7277617264696e672066756e647320746f2077616c6c65740000000000008183015290517f47af8c4076c54a76f613f82e4296a2c5e2167698d368157a82e62398393e345e9181900360600190a1611911565b6001601054610100900460ff16600181111561187d57fe5b1415611911576040805160208082526024908201527f666f7277617264696e672066756e647320746f20726566756e6461626c652076818301527f61756c7400000000000000000000000000000000000000000000000000000000606082015290517f47af8c4076c54a76f613f82e4296a2c5e2167698d368157a82e62398393e345e9181900360800190a1611911611a53565b565b60008282111561191f57fe5b50900390565b61192d610f7b565b156119a257600d60009054906101000a9004600160a060020a0316600160a060020a03166343d726d66040518163ffffffff1660e060020a028152600401600060405180830381600087803b15801561198557600080fd5b505af1158015611999573d6000803e3d6000fd5b50505050611a0e565b600d60009054906101000a9004600160a060020a0316600160a060020a0316638c52dc416040518163ffffffff1660e060020a028152600401600060405180830381600087803b1580156119f557600080fd5b505af1158015611a09573d6000803e3d6000fd5b505050505b611911611911565b600855565b600654421190565b60008060006005544210158015611a3c57506006544211155b915050341515818015611a4c5750805b9250505090565b600d54604080517ff340fa010000000000000000000000000000000000000000000000000000000081523360048201529051600160a060020a039092169163f340fa01913491602480830192600092919082900301818588803b158015611ab957600080fd5b505af11580156112b8573d6000803e3d6000fd00a165627a7a72305820affdf5ee03ff0a533ded6addbcfefe5a749a4eb69932e22196a2bdb904456b9b0029608060405234801561001057600080fd5b506040516020806105fe833981016040525160008054600160a060020a03191633179055600160a060020a038116151561004957600080fd5b60028054600160a060020a031916600160a060020a03929092169190911760a060020a60ff021916905561057c806100826000396000f3006080604052600436106100985763ffffffff7c010000000000000000000000000000000000000000000000000000000060003504166343d726d6811461009d578063521eb273146100b45780638c52dc41146100e55780638da5cb5b146100fa578063c19d93fb1461010f578063cb13cddb14610148578063f2fde38b1461017b578063f340fa011461019c578063fa89401a146101b0575b600080fd5b3480156100a957600080fd5b506100b26101d1565b005b3480156100c057600080fd5b506100c96102a7565b60408051600160a060020a039092168252519081900360200190f35b3480156100f157600080fd5b506100b26102b6565b34801561010657600080fd5b506100c9610340565b34801561011b57600080fd5b5061012461034f565b6040518082600281111561013457fe5b60ff16815260200191505060405180910390f35b34801561015457600080fd5b50610169600160a060020a036004351661035f565b60408051918252519081900360200190f35b34801561018757600080fd5b506100b2600160a060020a0360043516610371565b6100b2600160a060020a0360043516610405565b3480156101bc57600080fd5b506100b2600160a060020a0360043516610485565b600054600160a060020a031633146101e857600080fd5b60006002805460a060020a900460ff169081111561020257fe5b1461020c57600080fd5b6002805474ff00000000000000000000000000000000000000001916740200000000000000000000000000000000000000001790556040517f1cdde67b72a90f19919ac732a437ac2f7a10fc128d28c2a6e525d89ce5cd9d3a90600090a1600254604051600160a060020a0390911690303180156108fc02916000818181858888f193505050501580156102a4573d6000803e3d6000fd5b50565b600254600160a060020a031681565b600054600160a060020a031633146102cd57600080fd5b60006002805460a060020a900460ff16908111156102e757fe5b146102f157600080fd5b6002805474ff0000000000000000000000000000000000000000191660a060020a1790556040517f599d8e5a83cffb867d051598c4d70e805d59802d8081c1c7d6dffc5b6aca2b8990600090a1565b600054600160a060020a031681565b60025460a060020a900460ff1681565b60016020526000908152604090205481565b600054600160a060020a0316331461038857600080fd5b600160a060020a038116151561039d57600080fd5b60008054604051600160a060020a03808516939216917f8be0079c531659141344cd1fd0a4f28419497f9722a3daafe3b4186f6b6457e091a36000805473ffffffffffffffffffffffffffffffffffffffff1916600160a060020a0392909216919091179055565b600054600160a060020a0316331461041c57600080fd5b60006002805460a060020a900460ff169081111561043657fe5b1461044057600080fd5b600160a060020a038116600090815260016020526040902054610469903463ffffffff61053a16565b600160a060020a03909116600090815260016020526040902055565b600060016002805460a060020a900460ff16908111156104a157fe5b146104ab57600080fd5b50600160a060020a038116600081815260016020526040808220805490839055905190929183156108fc02918491818181858888f193505050501580156104f6573d6000803e3d6000fd5b50604080518281529051600160a060020a038416917fd7dee2702d63ad89917b6a4da9981c90c4d24f8c2bdfd64c604ecae57d8d0651919081900360200190a25050565b60008282018381101561054957fe5b93925050505600a165627a7a72305820eb904cabab2a6e53f5e548e71b9547f8d7b0a539fe2ecffddf0c77b3a633255700296080604052600380546006805460ff19166012179055600160a860020a03191633179055610bf7806100326000396000f3006080604052600436106100e55763ffffffff7c010000000000000000000000000000000000000000000000000000000060003504166305d2035b81146100ea57806306fdde0314610113578063095ea7b31461019d57806318160ddd146101c157806323b872dd146101e8578063313ce5671461021257806340c10f191461023d578063661884631461026157806370a08231146102855780637d64bcb4146102a65780638da5cb5b146102bb57806395d89b41146102ec578063a9059cbb14610301578063d73dd62314610325578063dd62ed3e14610349578063f2fde38b14610370575b600080fd5b3480156100f657600080fd5b506100ff610393565b604080519115158252519081900360200190f35b34801561011f57600080fd5b506101286103b4565b6040805160208082528351818301528351919283929083019185019080838360005b8381101561016257818101518382015260200161014a565b50505050905090810190601f16801561018f5780820380516001836020036101000a031916815260200191505b509250505060405180910390f35b3480156101a957600080fd5b506100ff600160a060020a0360043516602435610442565b3480156101cd57600080fd5b506101d66104a8565b60408051918252519081900360200190f35b3480156101f457600080fd5b506100ff600160a060020a03600435811690602435166044356104ae565b34801561021e57600080fd5b50610227610627565b6040805160ff9092168252519081900360200190f35b34801561024957600080fd5b506100ff600160a060020a0360043516602435610630565b34801561026d57600080fd5b506100ff600160a060020a036004351660243561074c565b34801561029157600080fd5b506101d6600160a060020a036004351661083c565b3480156102b257600080fd5b506100ff610857565b3480156102c757600080fd5b506102d06108fd565b60408051600160a060020a039092168252519081900360200190f35b3480156102f857600080fd5b5061012861090c565b34801561030d57600080fd5b506100ff600160a060020a0360043516602435610967565b34801561033157600080fd5b506100ff600160a060020a0360043516602435610a4a565b34801561035557600080fd5b506101d6600160a060020a0360043581169060243516610ae3565b34801561037c57600080fd5b50610391600160a060020a0360043516610b0e565b005b60035474010000000000000000000000000000000000000000900460ff1681565b6004805460408051602060026001851615610100026000190190941693909304601f8101849004840282018401909252818152929183018282801561043a5780601f1061040f5761010080835404028352916020019161043a565b820191906000526020600020905b81548152906001019060200180831161041d57829003601f168201915b505050505081565b336000818152600260209081526040808320600160a060020a038716808552908352818420869055815186815291519394909390927f8c5be1e5ebec7d5bd14f71427d1e84f3dd0314c0f7b2291e5b200ac8c7c3b925928290030190a350600192915050565b60005481565b6000600160a060020a03831615156104c557600080fd5b600160a060020a0384166000908152600160205260409020548211156104ea57600080fd5b600160a060020a038416600090815260026020908152604080832033845290915290205482111561051a57600080fd5b600160a060020a038416600090815260016020526040902054610543908363ffffffff610ba316565b600160a060020a038086166000908152600160205260408082209390935590851681522054610578908363ffffffff610bb516565b600160a060020a0380851660009081526001602090815260408083209490945591871681526002825282812033825290915220546105bc908363ffffffff610ba316565b600160a060020a03808616600081815260026020908152604080832033845282529182902094909455805186815290519287169391927fddf252ad1be2c89b69c2b068fc378daa952ba7f163c4a11628f55a4df523b3ef929181900390910190a35060019392505050565b60065460ff1681565b600354600090600160a060020a0316331461064a57600080fd5b60035474010000000000000000000000000000000000000000900460ff161561067257600080fd5b600054610685908363ffffffff610bb516565b6000908155600160a060020a0384168152600160205260409020546106b0908363ffffffff610bb516565b600160a060020a038416600081815260016020908152604091829020939093558051858152905191927f0f6798a560793a54c3bcfe86a93cde1e73087d944c0ea20544137d412139688592918290030190a2604080518381529051600160a060020a038516916000917fddf252ad1be2c89b69c2b068fc378daa952ba7f163c4a11628f55a4df523b3ef9181900360200190a350600192915050565b336000908152600260209081526040808320600160a060020a0386168452909152812054808311156107a157336000908152600260209081526040808320600160a060020a03881684529091528120556107d6565b6107b1818463ffffffff610ba316565b336000908152600260209081526040808320600160a060020a03891684529091529020555b336000818152600260209081526040808320600160a060020a0389168085529083529281902054815190815290519293927f8c5be1e5ebec7d5bd14f71427d1e84f3dd0314c0f7b2291e5b200ac8c7c3b925929181900390910190a35060019392505050565b600160a060020a031660009081526001602052604090205490565b600354600090600160a060020a0316331461087157600080fd5b60035474010000000000000000000000000000000000000000900460ff161561089957600080fd5b6003805474ff00000000000000000000000000000000000000001916740100000000000000000000000000000000000000001790556040517fae5184fba832cb2b1f702aca6117b8d265eaf03ad33eb133f19dde0f5920fa0890600090a150600190565b600354600160a060020a031681565b6005805460408051602060026001851615610100026000190190941693909304601f8101849004840282018401909252818152929183018282801561043a5780601f1061040f5761010080835404028352916020019161043a565b6000600160a060020a038316151561097e57600080fd5b3360009081526001602052604090205482111561099a57600080fd5b336000908152600160205260409020546109ba908363ffffffff610ba316565b3360009081526001602052604080822092909255600160a060020a038516815220546109ec908363ffffffff610bb516565b600160a060020a0384166000818152600160209081526040918290209390935580518581529051919233927fddf252ad1be2c89b69c2b068fc378daa952ba7f163c4a11628f55a4df523b3ef9281900390910190a350600192915050565b336000908152600260209081526040808320600160a060020a0386168452909152812054610a7e908363ffffffff610bb516565b336000818152600260209081526040808320600160a060020a0389168085529083529281902085905580519485525191937f8c5be1e5ebec7d5bd14f71427d1e84f3dd0314c0f7b2291e5b200ac8c7c3b925929081900390910190a350600192915050565b600160a060020a03918216600090815260026020908152604080832093909416825291909152205490565b600354600160a060020a03163314610b2557600080fd5b600160a060020a0381161515610b3a57600080fd5b600354604051600160a060020a038084169216907f8be0079c531659141344cd1fd0a4f28419497f9722a3daafe3b4186f6b6457e090600090a36003805473ffffffffffffffffffffffffffffffffffffffff1916600160a060020a0392909216919091179055565b600082821115610baf57fe5b50900390565b600082820183811015610bc457fe5b93925050505600a165627a7a723058208d3693600ba92ac5c9e1749e202a05775a87f93a46a1fe149dc4accb4fddee910029",
  "source": "pragma solidity ^0.4.18;\r\n\r\nimport './HashnodeToken.sol';\r\nimport '../node_modules/zeppelin-solidity/contracts/crowdsale/CappedCrowdsale.sol';\r\nimport '../node_modules/zeppelin-solidity/contracts/crowdsale/RefundableCrowdsale.sol';\r\n\r\ncontract HashnodeCrowdsale is CappedCrowdsale, RefundableCrowdsale,  HashnodeToken{\r\n\r\n  // ICO Stage\r\n  // ============\r\n  enum CrowdsaleStage { PreICO, ICO }\r\n  CrowdsaleStage public stage = CrowdsaleStage.PreICO; // By default it's Pre Sale\r\n  // =============\r\n\r\n  // Token Distribution\r\n  // =============================\r\n  uint256 public maxTokens;// = 100000000000000000000; // There will be total 100 VPN Tokens 000000000000000000\r\n  uint256 public tokensForEcosystem;// = 20000000000000000000; // 10 VPN\r\n  uint256 public tokensForTeam;// = 10000000000000000000; // 10 VPN\r\n  uint256 public tokensForBountyAndAirDrop;// = 10000000000000000000; //30 VPN\r\n  uint256 public totalTokensForSale;// = 40000000000000000000; // 50 VPNs will be sold in Crowdsale\r\n  uint256 public totalTokensForSaleDuringPreICO;// = 20000000000000000000; // 20 VPN out of 60 VPN will be sold during PreICO\r\n  // ==============================\r\n\r\n  // Amount raised in PreICO\r\n  // ==================\r\n  uint256 public totalWeiRaisedDuringPreICO;\r\n  // ===================\r\n\r\n\r\n\r\n  // Events\r\n  event EthTransferred(string text);\r\n  event EthRefunded(string text);\r\n\r\n\r\n  // Constructor\r\n  // ============\r\n  function HashnodeCrowdsale(\r\n  uint256 _startTime, //Start Date for CrowdSale\r\n  uint256 _endTime, //End of CrowdSale\r\n  uint256 _rate, // rate per ETH\r\n  address _wallet, // beneficiary address\r\n  uint256 _goal, // Goal funds for ETH or Minimum Capital answer in wei (ex 10000000000000000000 = 10 ETH)\r\n  uint256 _cap, // Max Capital for ETH, answer in wei (ex 500000000000000000000 wei = 500 ETH)\r\n  \r\n  // Total Supply\r\n  uint256 _maxTokens, // 100  \r\n  //Token Distribution\r\n  uint256 _tokenForEcosystem, // ex 10\r\n  uint256 _tokenForTeam, // ex 10\r\n  uint256 _tokenForBountyAndAirdrop, // ex 30\r\n  uint256 _totalTokenForSale, // ex 50\r\n  uint256 _totalTokenForSaleDuringPreICO, //ex 20\r\n  string _name, // VPN Cash Coin\r\n  string _symbol // VPN\r\n  ) CappedCrowdsale(_cap) FinalizableCrowdsale() RefundableCrowdsale(_goal) Crowdsale(_startTime, _endTime, _rate, _wallet) public {\r\n      require(_goal <= _cap);\r\n      maxTokens = valueInWei(_maxTokens);\r\n      tokensForEcosystem = valueInWei(_tokenForEcosystem);\r\n      tokensForTeam = valueInWei(_tokenForTeam);\r\n      tokensForBountyAndAirDrop = valueInWei(_tokenForBountyAndAirdrop);\r\n      totalTokensForSale = valueInWei(_totalTokenForSale);\r\n      totalTokensForSaleDuringPreICO = valueInWei(_totalTokenForSaleDuringPreICO);\r\n      name = _name;\r\n      symbol = _symbol;\r\n      \r\n  }\r\n\r\n  function valueInWei(uint256 _value) internal returns(uint256){\r\n      \r\n      return _value * 10 ** uint256(decimals);\r\n  }\r\n  // =============\r\n  \r\n\r\n\r\n\r\n\r\n  // Token Deployment\r\n  // =================\r\n  function createTokenContract() internal returns (MintableToken) {\r\n    return new HashnodeToken(); // Deploys the ERC20 token. Automatically called when crowdsale contract is deployed\r\n  }\r\n  // ==================\r\n\r\n  // Crowdsale Stage Management\r\n  // =========================================================\r\n\r\n  // Change Crowdsale Stage. Available Options: PreICO, ICO\r\n  function setCrowdsaleStage(uint value) public onlyOwner {\r\n\r\n      CrowdsaleStage _stage;\r\n\r\n      if (uint(CrowdsaleStage.PreICO) == value) {\r\n        _stage = CrowdsaleStage.PreICO;\r\n      } else if (uint(CrowdsaleStage.ICO) == value) {\r\n        _stage = CrowdsaleStage.ICO;\r\n      }\r\n\r\n      stage = _stage;\r\n\r\n      if (stage == CrowdsaleStage.PreICO) {\r\n        setCurrentRate(rate);\r\n      } else if (stage == CrowdsaleStage.ICO) {\r\n        setCurrentRate(2);\r\n      }\r\n  }\r\n\r\n  // Change the current rate\r\n  function setCurrentRate(uint256 _rate) private {\r\n      rate = _rate;\r\n  }\r\n\r\n  // ================ Stage Management Over =====================\r\n\r\n  // Token Purchase\r\n  // =========================\r\n  function () external payable {\r\n      uint256 tokensThatWillBeMintedAfterPurchase = msg.value.mul(rate);\r\n      if ((stage == CrowdsaleStage.PreICO) && (token.totalSupply() + tokensThatWillBeMintedAfterPurchase > totalTokensForSaleDuringPreICO)) {\r\n        msg.sender.transfer(msg.value); // Refund them\r\n        EthRefunded(\"PreICO Limit Hit\");\r\n        return;\r\n      }\r\n\r\n      buyTokens(msg.sender);\r\n\r\n      if (stage == CrowdsaleStage.PreICO) {\r\n          totalWeiRaisedDuringPreICO = totalWeiRaisedDuringPreICO.add(msg.value);\r\n      }\r\n  }\r\n\r\n  function forwardFunds() internal {\r\n      if (stage == CrowdsaleStage.PreICO) {\r\n          wallet.transfer(msg.value);\r\n          EthTransferred(\"forwarding funds to wallet\");\r\n      } else if (stage == CrowdsaleStage.ICO) {\r\n          EthTransferred(\"forwarding funds to refundable vault\");\r\n          super.forwardFunds();\r\n      }\r\n  }\r\n  // ===========================\r\n\r\n  // Finish: Mint Extra Tokens as needed before finalizing the Crowdsale.\r\n  // ====================================================================\r\n\r\n  function finish(address _teamFund, address _ecosystemFund, address _bountyFund) public onlyOwner {\r\n\r\n      require(!isFinalized);\r\n      uint256 alreadyMinted = token.totalSupply();\r\n      require(alreadyMinted < maxTokens);\r\n\r\n      uint256 unsoldTokens = totalTokensForSale - alreadyMinted;\r\n      if (unsoldTokens > 0) {\r\n        tokensForEcosystem = tokensForEcosystem + unsoldTokens;\r\n      }\r\n\r\n      token.mint(_teamFund,tokensForTeam);\r\n      token.mint(_ecosystemFund,tokensForEcosystem);\r\n      token.mint(_bountyFund,tokensForBountyAndAirDrop);\r\n      finalize();\r\n  }\r\n  // ===============================\r\n\r\n  // REMOVE THIS FUNCTION ONCE YOU ARE READY FOR PRODUCTION\r\n  // USEFUL FOR TESTING `finish()` FUNCTION\r\n  //function hasEnded() public view returns (bool) {\r\n  //  return true;\r\n  //}\r\n}",
  "sourcePath": "D:\\CrowdsaleContract\\contracts\\HashnodeCrowdsale.sol",
  "compiler": {
    "name": "solc",
    "version": "0.4.24+commit.e67f0147.Emscripten.clang"
  },
  "schemaVersion": "2.0.0",
  "updatedAt": "2018-06-20T09:07:10.360Z"
}