{
  "contractName": "HashnodeCrowdsale",
  "abi": [
    {
      "constant": true,
      "inputs": [],
      "name": "rate",
      "outputs": [
        {
          "name": "",
          "type": "uint256"
        }
      ],
      "payable": false,
      "stateMutability": "view",
      "type": "function"
    },
    {
      "constant": true,
      "inputs": [],
      "name": "endTime",
      "outputs": [
        {
          "name": "",
          "type": "uint256"
        }
      ],
      "payable": false,
      "stateMutability": "view",
      "type": "function"
    },
    {
      "constant": true,
      "inputs": [],
      "name": "cap",
      "outputs": [
        {
          "name": "",
          "type": "uint256"
        }
      ],
      "payable": false,
      "stateMutability": "view",
      "type": "function"
    },
    {
      "constant": true,
      "inputs": [],
      "name": "goal",
      "outputs": [
        {
          "name": "",
          "type": "uint256"
        }
      ],
      "payable": false,
      "stateMutability": "view",
      "type": "function"
    },
    {
      "constant": true,
      "inputs": [],
      "name": "weiRaised",
      "outputs": [
        {
          "name": "",
          "type": "uint256"
        }
      ],
      "payable": false,
      "stateMutability": "view",
      "type": "function"
    },
    {
      "constant": true,
      "inputs": [],
      "name": "previousRate",
      "outputs": [
        {
          "name": "",
          "type": "uint256"
        }
      ],
      "payable": false,
      "stateMutability": "view",
      "type": "function"
    },
    {
      "constant": false,
      "inputs": [],
      "name": "finalize",
      "outputs": [],
      "payable": false,
      "stateMutability": "nonpayable",
      "type": "function"
    },
    {
      "constant": true,
      "inputs": [],
      "name": "tokensForEcosystem",
      "outputs": [
        {
          "name": "",
          "type": "uint256"
        }
      ],
      "payable": false,
      "stateMutability": "view",
      "type": "function"
    },
    {
      "constant": true,
      "inputs": [],
      "name": "wallet",
      "outputs": [
        {
          "name": "",
          "type": "address"
        }
      ],
      "payable": false,
      "stateMutability": "view",
      "type": "function"
    },
    {
      "constant": true,
      "inputs": [],
      "name": "totalTokensForSale",
      "outputs": [
        {
          "name": "",
          "type": "uint256"
        }
      ],
      "payable": false,
      "stateMutability": "view",
      "type": "function"
    },
    {
      "constant": true,
      "inputs": [],
      "name": "startTime",
      "outputs": [
        {
          "name": "",
          "type": "uint256"
        }
      ],
      "payable": false,
      "stateMutability": "view",
      "type": "function"
    },
    {
      "constant": true,
      "inputs": [],
      "name": "goalReached",
      "outputs": [
        {
          "name": "",
          "type": "bool"
        }
      ],
      "payable": false,
      "stateMutability": "view",
      "type": "function"
    },
    {
      "constant": false,
      "inputs": [
        {
          "name": "_endTime",
          "type": "uint256"
        }
      ],
      "name": "extendEndTime",
      "outputs": [],
      "payable": true,
      "stateMutability": "payable",
      "type": "function"
    },
    {
      "constant": true,
      "inputs": [],
      "name": "isFinalized",
      "outputs": [
        {
          "name": "",
          "type": "bool"
        }
      ],
      "payable": false,
      "stateMutability": "view",
      "type": "function"
    },
    {
      "constant": true,
      "inputs": [],
      "name": "owner",
      "outputs": [
        {
          "name": "",
          "type": "address"
        }
      ],
      "payable": false,
      "stateMutability": "view",
      "type": "function"
    },
    {
      "constant": true,
      "inputs": [],
      "name": "tokensForBountyAndAirDrop",
      "outputs": [
        {
          "name": "",
          "type": "uint256"
        }
      ],
      "payable": false,
      "stateMutability": "view",
      "type": "function"
    },
    {
      "constant": true,
      "inputs": [],
      "name": "totalWeiRaisedDuringPreICO",
      "outputs": [
        {
          "name": "",
          "type": "uint256"
        }
      ],
      "payable": false,
      "stateMutability": "view",
      "type": "function"
    },
    {
      "constant": false,
      "inputs": [],
      "name": "claimRefund",
      "outputs": [],
      "payable": false,
      "stateMutability": "nonpayable",
      "type": "function"
    },
    {
      "constant": true,
      "inputs": [],
      "name": "totalTokensForSaleDuringPreICO",
      "outputs": [
        {
          "name": "",
          "type": "uint256"
        }
      ],
      "payable": false,
      "stateMutability": "view",
      "type": "function"
    },
    {
      "constant": true,
      "inputs": [],
      "name": "stage",
      "outputs": [
        {
          "name": "",
          "type": "uint8"
        }
      ],
      "payable": false,
      "stateMutability": "view",
      "type": "function"
    },
    {
      "constant": true,
      "inputs": [],
      "name": "maxTokens",
      "outputs": [
        {
          "name": "",
          "type": "uint256"
        }
      ],
      "payable": false,
      "stateMutability": "view",
      "type": "function"
    },
    {
      "constant": false,
      "inputs": [
        {
          "name": "beneficiary",
          "type": "address"
        }
      ],
      "name": "buyTokens",
      "outputs": [],
      "payable": true,
      "stateMutability": "payable",
      "type": "function"
    },
    {
      "constant": true,
      "inputs": [],
      "name": "hasEnded",
      "outputs": [
        {
          "name": "",
          "type": "bool"
        }
      ],
      "payable": false,
      "stateMutability": "view",
      "type": "function"
    },
    {
      "constant": false,
      "inputs": [
        {
          "name": "newOwner",
          "type": "address"
        }
      ],
      "name": "transferOwnership",
      "outputs": [],
      "payable": false,
      "stateMutability": "nonpayable",
      "type": "function"
    },
    {
      "constant": true,
      "inputs": [],
      "name": "vault",
      "outputs": [
        {
          "name": "",
          "type": "address"
        }
      ],
      "payable": false,
      "stateMutability": "view",
      "type": "function"
    },
    {
      "constant": true,
      "inputs": [],
      "name": "token",
      "outputs": [
        {
          "name": "",
          "type": "address"
        }
      ],
      "payable": false,
      "stateMutability": "view",
      "type": "function"
    },
    {
      "constant": true,
      "inputs": [],
      "name": "tokensForTeam",
      "outputs": [
        {
          "name": "",
          "type": "uint256"
        }
      ],
      "payable": false,
      "stateMutability": "view",
      "type": "function"
    },
    {
      "inputs": [
        {
          "name": "_startTime",
          "type": "uint256"
        },
        {
          "name": "_endTime",
          "type": "uint256"
        },
        {
          "name": "_rate",
          "type": "uint256"
        },
        {
          "name": "_wallet",
          "type": "address"
        },
        {
          "name": "_goal",
          "type": "uint256"
        },
        {
          "name": "_cap",
          "type": "uint256"
        },
        {
          "name": "_maxTokens",
          "type": "uint256"
        },
        {
          "name": "_forDistribution",
          "type": "uint256[5]"
        },
        {
          "name": "_forBonus",
          "type": "uint256[4]"
        }
      ],
      "payable": false,
      "stateMutability": "nonpayable",
      "type": "constructor"
    },
    {
      "payable": true,
      "stateMutability": "payable",
      "type": "fallback"
    },
    {
      "anonymous": false,
      "inputs": [
        {
          "indexed": false,
          "name": "text",
          "type": "string"
        }
      ],
      "name": "EthTransferred",
      "type": "event"
    },
    {
      "anonymous": false,
      "inputs": [
        {
          "indexed": false,
          "name": "text",
          "type": "string"
        }
      ],
      "name": "EthRefunded",
      "type": "event"
    },
    {
      "anonymous": false,
      "inputs": [],
      "name": "Finalized",
      "type": "event"
    },
    {
      "anonymous": false,
      "inputs": [
        {
          "indexed": true,
          "name": "purchaser",
          "type": "address"
        },
        {
          "indexed": true,
          "name": "beneficiary",
          "type": "address"
        },
        {
          "indexed": false,
          "name": "value",
          "type": "uint256"
        },
        {
          "indexed": false,
          "name": "amount",
          "type": "uint256"
        }
      ],
      "name": "TokenPurchase",
      "type": "event"
    },
    {
      "anonymous": false,
      "inputs": [
        {
          "indexed": true,
          "name": "previousOwner",
          "type": "address"
        },
        {
          "indexed": true,
          "name": "newOwner",
          "type": "address"
        }
      ],
      "name": "OwnershipTransferred",
      "type": "event"
    },
    {
      "constant": false,
      "inputs": [
        {
          "name": "value",
          "type": "uint256"
        }
      ],
      "name": "setCrowdsaleStage",
      "outputs": [],
      "payable": false,
      "stateMutability": "nonpayable",
      "type": "function"
    },
    {
      "constant": false,
      "inputs": [
        {
          "name": "_teamFund",
          "type": "address"
        },
        {
          "name": "_ecosystemFund",
          "type": "address"
        },
        {
          "name": "_bountyFund",
          "type": "address"
        }
      ],
      "name": "finish",
      "outputs": [],
      "payable": false,
      "stateMutability": "nonpayable",
      "type": "function"
    }
  ],
  "bytecode": "0x60806040526008805460ff19169055600a805460a060020a60ff02191690553480156200002b57600080fd5b506040516102008062002a7083398101604090815281516020830151918301516060840151608085015160a086015160c087015160008054600160a060020a031916331790559496939492939192909160e08101906101800184848a8a8a8a838310156200009857600080fd5b60008211620000a657600080fd5b600160a060020a0381161515620000bc57600080fd5b620000cf6401000000006200025d810204565b60018054600160a060020a0319908116600160a060020a0393841617909155600295909555600393909355600591909155600480549093169116179055600081116200011a57600080fd5b600755600081116200012b57600080fd5b600454600160a060020a0316620001416200051b565b600160a060020a03909116815260405190819003602001906000f0801580156200016f573d6000803e3d6000fd5b50600a8054600160a060020a031916600160a060020a039290921691909117905560095583851115620001a157600080fd5b620001b5836401000000006200028c810204565b600b55620001d48260005b60200201516401000000006200028c810204565b600c55620001e4826001620001c0565b600d55620001f4826002620001c0565b600e5562000204826003620001c0565b600f5562000214826004620001c0565b601055805160125560208101516013556040810151601455606081015160155560168790556200024e600064010000000062000299810204565b5050505050505050506200053d565b6000620002696200052c565b604051809103906000f08015801562000286573d6000803e3d6000fd5b50905090565b670de0b6b3a76400000290565b600080548190600160a060020a03163314620002b457600080fd5b821515620002c6576000915062000311565b8260011415620002da576001915062000311565b8260021415620002ee576002915062000311565b826003141562000302576003915062000311565b82600414156200031157600491505b600a805483919060a060020a60ff021916740100000000000000000000000000000000000000008360048111156200034557fe5b02179055506000600a5474010000000000000000000000000000000000000000900460ff1660048111156200037657fe5b1415620003b95762000399601254620004fa640100000000026401000000009004565b601654019050620003b38164010000000062000516810204565b620004f5565b6001600a5474010000000000000000000000000000000000000000900460ff166004811115620003e557fe5b1415620004085762000399601354620004fa640100000000026401000000009004565b6002600a5474010000000000000000000000000000000000000000900460ff1660048111156200043457fe5b1415620004575762000399601454620004fa640100000000026401000000009004565b6003600a5474010000000000000000000000000000000000000000900460ff1660048111156200048357fe5b1415620004a65762000399601554620004fa640100000000026401000000009004565b6004600a5474010000000000000000000000000000000000000000900460ff166004811115620004d257fe5b1415620004f557620004f560165462000516640100000000026401000000009004565b505050565b600080606483601654028115156200050e57fe5b049392505050565b600555565b6040516105fe806200171983390190565b604051610d598062001d1783390190565b6111cc806200054d6000396000f30060806040526004361061015b5763ffffffff60e060020a6000350416632c4e722e81146103015780633197cbb614610328578063355274ea1461033d57806340193883146103525780634042b66f146103675780634085b6101461037c5780634bb278f3146103915780634c4cfc3b146103a8578063521eb273146103bd57806360219c7b146103ee57806378e97925146104035780637d3d6522146104185780637e02bb0f1461044157806388770cb01461046e5780638d4e4083146104795780638da5cb5b1461048e578063a1865e6b146104a3578063a997f82f146104b8578063abe8014a146104d0578063b5545a3c146104e5578063c02aaea1146104fa578063c040e6b81461050f578063e831574214610548578063ec8ac4d81461055d578063ecb70fb714610571578063f2fde38b14610586578063fbfa77cf146105a7578063fc0c546a146105bc578063fde83a34146105d1575b6000610172600554346105e690919063ffffffff16565b90506000600a5460a060020a900460ff16600481111561018e57fe5b1480156102275750601054600154604080517f18160ddd00000000000000000000000000000000000000000000000000000000815290518492600160a060020a0316916318160ddd9160048083019260209291908290030181600087803b1580156101f857600080fd5b505af115801561020c573d6000803e3d6000fd5b505050506040513d602081101561022257600080fd5b505101115b156102be5760405133903480156108fc02916000818181858888f19350505050158015610258573d6000803e3d6000fd5b506040805160208082526010908201527f50726549434f204c696d697420486974000000000000000000000000000000008183015290517fc0283f9c45b2118c7ec26e4f4bf06fc486f94a186fb38dc5dff372d9cb709d379181900360600190a16102fe565b6102c73361061c565b6000600a5460a060020a900460ff1660048111156102e157fe5b14156102fe576011546102fa903463ffffffff61075116565b6011555b50005b34801561030d57600080fd5b50610316610760565b60408051918252519081900360200190f35b34801561033457600080fd5b50610316610766565b34801561034957600080fd5b5061031661076c565b34801561035e57600080fd5b50610316610772565b34801561037357600080fd5b50610316610778565b34801561038857600080fd5b5061031661077e565b34801561039d57600080fd5b506103a6610784565b005b3480156103b457600080fd5b506103166107fe565b3480156103c957600080fd5b506103d2610804565b60408051600160a060020a039092168252519081900360200190f35b3480156103fa57600080fd5b50610316610813565b34801561040f57600080fd5b50610316610819565b34801561042457600080fd5b5061042d61081f565b604080519115158252519081900360200190f35b34801561044d57600080fd5b506103a6600160a060020a036004358116906024358116906044351661082a565b6103a6600435610aa8565b34801561048557600080fd5b5061042d610af2565b34801561049a57600080fd5b506103d2610afb565b3480156104af57600080fd5b50610316610b0a565b3480156104c457600080fd5b506103a6600435610b10565b3480156104dc57600080fd5b50610316610c9e565b3480156104f157600080fd5b506103a6610ca4565b34801561050657600080fd5b50610316610d46565b34801561051b57600080fd5b50610524610d4c565b6040518082600481111561053457fe5b60ff16815260200191505060405180910390f35b34801561055457600080fd5b50610316610d5c565b6103a6600160a060020a036004351661061c565b34801561057d57600080fd5b5061042d610d62565b34801561059257600080fd5b506103a6600160a060020a0360043516610d83565b3480156105b357600080fd5b506103d2610e17565b3480156105c857600080fd5b506103d2610e26565b3480156105dd57600080fd5b50610316610e35565b6000808315156105f95760009150610615565b5082820282848281151561060957fe5b041461061157fe5b8091505b5092915050565b600080600160a060020a038316151561063457600080fd5b61063c610e3b565b151561064757600080fd5b60055434925061065e90839063ffffffff6105e616565b600654909150610674908363ffffffff61075116565b6006556001546040805160e060020a6340c10f19028152600160a060020a03868116600483015260248201859052915191909216916340c10f199160448083019260209291908290030181600087803b1580156106d057600080fd5b505af11580156106e4573d6000803e3d6000fd5b505050506040513d60208110156106fa57600080fd5b505060408051838152602081018390528151600160a060020a0386169233927f623b3804fa71d67900d064613da8f94b9617215ee90799290593e1745087ad18929081900390910190a361074c610e6e565b505050565b60008282018381101561061157fe5b60055481565b60035481565b60075481565b60095481565b60065481565b60165481565b600054600160a060020a0316331461079b57600080fd5b60085460ff16156107ab57600080fd5b6107b3610d62565b15156107be57600080fd5b6107c6610fdd565b6040517f6823b073d48d6e3a7d385eeb601452d680e74bb46afe3255a7d778f3a9b1768190600090a16008805460ff19166001179055565b600c5481565b600454600160a060020a031681565b600f5481565b60025481565b600954600654101590565b600080548190600160a060020a0316331461084457600080fd5b60085460ff161561085457600080fd5b600160009054906101000a9004600160a060020a0316600160a060020a03166318160ddd6040518163ffffffff1660e060020a028152600401602060405180830381600087803b1580156108a757600080fd5b505af11580156108bb573d6000803e3d6000fd5b505050506040513d60208110156108d157600080fd5b5051600b5490925082106108e457600080fd5b81600f5403905060008111156108fd57600c8054820190555b600154600d546040805160e060020a6340c10f19028152600160a060020a0389811660048301526024820193909352905191909216916340c10f199160448083019260209291908290030181600087803b15801561095a57600080fd5b505af115801561096e573d6000803e3d6000fd5b505050506040513d602081101561098457600080fd5b5050600154600c546040805160e060020a6340c10f19028152600160a060020a0388811660048301526024820193909352905191909216916340c10f199160448083019260209291908290030181600087803b1580156109e357600080fd5b505af11580156109f7573d6000803e3d6000fd5b505050506040513d6020811015610a0d57600080fd5b5050600154600e546040805160e060020a6340c10f19028152600160a060020a0387811660048301526024820193909352905191909216916340c10f199160448083019260209291908290030181600087803b158015610a6c57600080fd5b505af1158015610a80573d6000803e3d6000fd5b505050506040513d6020811015610a9657600080fd5b50610aa19050610784565b5050505050565b600054600160a060020a03163314610abf57600080fd5b610ac7610d62565b15610ad157600080fd5b6003544210610adf57600080fd5b6003548111610aed57600080fd5b600355565b60085460ff1681565b600054600160a060020a031681565b600e5481565b600080548190600160a060020a03163314610b2a57600080fd5b821515610b3a5760009150610b7e565b8260011415610b4c5760019150610b7e565b8260021415610b5e5760029150610b7e565b8260031415610b705760039150610b7e565b8260041415610b7e57600491505b600a805483919074ff0000000000000000000000000000000000000000191660a060020a836004811115610bae57fe5b02179055506000600a5460a060020a900460ff166004811115610bcd57fe5b1415610bf257610bde6012546110ce565b601654019050610bed816110e9565b61074c565b6001600a5460a060020a900460ff166004811115610c0c57fe5b1415610c1d57610bde6013546110ce565b6002600a5460a060020a900460ff166004811115610c3757fe5b1415610c4857610bde6014546110ce565b6003600a5460a060020a900460ff166004811115610c6257fe5b1415610c7357610bde6015546110ce565b6004600a5460a060020a900460ff166004811115610c8d57fe5b141561074c5761074c6016546110e9565b60115481565b60085460ff161515610cb557600080fd5b610cbd61081f565b15610cc757600080fd5b600a54604080517ffa89401a0000000000000000000000000000000000000000000000000000000081523360048201529051600160a060020a039092169163fa89401a9160248082019260009290919082900301818387803b158015610d2c57600080fd5b505af1158015610d40573d6000803e3d6000fd5b50505050565b60105481565b600a5460a060020a900460ff1681565b600b5481565b6007546006546000911115610d756110ee565b80610d7d5750805b91505090565b600054600160a060020a03163314610d9a57600080fd5b600160a060020a0381161515610daf57600080fd5b60008054604051600160a060020a03808516939216917f8be0079c531659141344cd1fd0a4f28419497f9722a3daafe3b4186f6b6457e091a36000805473ffffffffffffffffffffffffffffffffffffffff1916600160a060020a0392909216919091179055565b600a54600160a060020a031681565b600154600160a060020a031681565b600d5481565b600080600754610e563460065461075190919063ffffffff16565b11159050610e626110f6565b8015610d7d5750919050565b6000600a5460a060020a900460ff166004811115610e8857fe5b1415610f2d57600454604051600160a060020a03909116903480156108fc02916000818181858888f19350505050158015610ec7573d6000803e3d6000fd5b50604080516020808252601a908201527f666f7277617264696e672066756e647320746f2077616c6c65740000000000008183015290517f47af8c4076c54a76f613f82e4296a2c5e2167698d368157a82e62398393e345e9181900360600190a1610fdb565b6004600a5460a060020a900460ff166004811115610f4757fe5b1415610fdb576040805160208082526024908201527f666f7277617264696e672066756e647320746f20726566756e6461626c652076818301527f61756c7400000000000000000000000000000000000000000000000000000000606082015290517f47af8c4076c54a76f613f82e4296a2c5e2167698d368157a82e62398393e345e9181900360800190a1610fdb611126565b565b610fe561081f565b1561105a57600a60009054906101000a9004600160a060020a0316600160a060020a03166343d726d66040518163ffffffff1660e060020a028152600401600060405180830381600087803b15801561103d57600080fd5b505af1158015611051573d6000803e3d6000fd5b505050506110c6565b600a60009054906101000a9004600160a060020a0316600160a060020a0316638c52dc416040518163ffffffff1660e060020a028152600401600060405180830381600087803b1580156110ad57600080fd5b505af11580156110c1573d6000803e3d6000fd5b505050505b610fdb610fdb565b600080606483601654028115156110e157fe5b049392505050565b600555565b600354421190565b6000806000600254421015801561110f57506003544211155b91505034151581801561111f5750805b9250505090565b600a54604080517ff340fa010000000000000000000000000000000000000000000000000000000081523360048201529051600160a060020a039092169163f340fa01913491602480830192600092919082900301818588803b15801561118c57600080fd5b505af1158015610aa1573d6000803e3d6000fd00a165627a7a723058204f4ea73394b56452b2c9f657093ae1637b54fc2b213653c1e3ce851f27a6dab90029608060405234801561001057600080fd5b506040516020806105fe833981016040525160008054600160a060020a03191633179055600160a060020a038116151561004957600080fd5b60028054600160a060020a031916600160a060020a03929092169190911760a060020a60ff021916905561057c806100826000396000f3006080604052600436106100985763ffffffff7c010000000000000000000000000000000000000000000000000000000060003504166343d726d6811461009d578063521eb273146100b45780638c52dc41146100e55780638da5cb5b146100fa578063c19d93fb1461010f578063cb13cddb14610148578063f2fde38b1461017b578063f340fa011461019c578063fa89401a146101b0575b600080fd5b3480156100a957600080fd5b506100b26101d1565b005b3480156100c057600080fd5b506100c96102a7565b60408051600160a060020a039092168252519081900360200190f35b3480156100f157600080fd5b506100b26102b6565b34801561010657600080fd5b506100c9610340565b34801561011b57600080fd5b5061012461034f565b6040518082600281111561013457fe5b60ff16815260200191505060405180910390f35b34801561015457600080fd5b50610169600160a060020a036004351661035f565b60408051918252519081900360200190f35b34801561018757600080fd5b506100b2600160a060020a0360043516610371565b6100b2600160a060020a0360043516610405565b3480156101bc57600080fd5b506100b2600160a060020a0360043516610485565b600054600160a060020a031633146101e857600080fd5b60006002805460a060020a900460ff169081111561020257fe5b1461020c57600080fd5b6002805474ff00000000000000000000000000000000000000001916740200000000000000000000000000000000000000001790556040517f1cdde67b72a90f19919ac732a437ac2f7a10fc128d28c2a6e525d89ce5cd9d3a90600090a1600254604051600160a060020a0390911690303180156108fc02916000818181858888f193505050501580156102a4573d6000803e3d6000fd5b50565b600254600160a060020a031681565b600054600160a060020a031633146102cd57600080fd5b60006002805460a060020a900460ff16908111156102e757fe5b146102f157600080fd5b6002805474ff0000000000000000000000000000000000000000191660a060020a1790556040517f599d8e5a83cffb867d051598c4d70e805d59802d8081c1c7d6dffc5b6aca2b8990600090a1565b600054600160a060020a031681565b60025460a060020a900460ff1681565b60016020526000908152604090205481565b600054600160a060020a0316331461038857600080fd5b600160a060020a038116151561039d57600080fd5b60008054604051600160a060020a03808516939216917f8be0079c531659141344cd1fd0a4f28419497f9722a3daafe3b4186f6b6457e091a36000805473ffffffffffffffffffffffffffffffffffffffff1916600160a060020a0392909216919091179055565b600054600160a060020a0316331461041c57600080fd5b60006002805460a060020a900460ff169081111561043657fe5b1461044057600080fd5b600160a060020a038116600090815260016020526040902054610469903463ffffffff61053a16565b600160a060020a03909116600090815260016020526040902055565b600060016002805460a060020a900460ff16908111156104a157fe5b146104ab57600080fd5b50600160a060020a038116600081815260016020526040808220805490839055905190929183156108fc02918491818181858888f193505050501580156104f6573d6000803e3d6000fd5b50604080518281529051600160a060020a038416917fd7dee2702d63ad89917b6a4da9981c90c4d24f8c2bdfd64c604ecae57d8d0651919081900360200190a25050565b60008282018381101561054957fe5b93925050505600a165627a7a72305820eb904cabab2a6e53f5e548e71b9547f8d7b0a539fe2ecffddf0c77b3a633255700296003805460a060020a60ff021916905560c0604052600860808190527f56504e436173684300000000000000000000000000000000000000000000000060a090815261004e91600491906100b8565b506040805180820190915260038082527f56504e00000000000000000000000000000000000000000000000000000000006020909201918252610093916005916100b8565b506006805460ff1916601217905560038054600160a060020a03191633179055610153565b828054600181600116156101000203166002900490600052602060002090601f016020900481019282601f106100f957805160ff1916838001178555610126565b82800160010185558215610126579182015b8281111561012657825182559160200191906001019061010b565b50610132929150610136565b5090565b61015091905b80821115610132576000815560010161013c565b90565b610bf7806101626000396000f3006080604052600436106100e55763ffffffff7c010000000000000000000000000000000000000000000000000000000060003504166305d2035b81146100ea57806306fdde0314610113578063095ea7b31461019d57806318160ddd146101c157806323b872dd146101e8578063313ce5671461021257806340c10f191461023d578063661884631461026157806370a08231146102855780637d64bcb4146102a65780638da5cb5b146102bb57806395d89b41146102ec578063a9059cbb14610301578063d73dd62314610325578063dd62ed3e14610349578063f2fde38b14610370575b600080fd5b3480156100f657600080fd5b506100ff610393565b604080519115158252519081900360200190f35b34801561011f57600080fd5b506101286103b4565b6040805160208082528351818301528351919283929083019185019080838360005b8381101561016257818101518382015260200161014a565b50505050905090810190601f16801561018f5780820380516001836020036101000a031916815260200191505b509250505060405180910390f35b3480156101a957600080fd5b506100ff600160a060020a0360043516602435610442565b3480156101cd57600080fd5b506101d66104a8565b60408051918252519081900360200190f35b3480156101f457600080fd5b506100ff600160a060020a03600435811690602435166044356104ae565b34801561021e57600080fd5b50610227610627565b6040805160ff9092168252519081900360200190f35b34801561024957600080fd5b506100ff600160a060020a0360043516602435610630565b34801561026d57600080fd5b506100ff600160a060020a036004351660243561074c565b34801561029157600080fd5b506101d6600160a060020a036004351661083c565b3480156102b257600080fd5b506100ff610857565b3480156102c757600080fd5b506102d06108fd565b60408051600160a060020a039092168252519081900360200190f35b3480156102f857600080fd5b5061012861090c565b34801561030d57600080fd5b506100ff600160a060020a0360043516602435610967565b34801561033157600080fd5b506100ff600160a060020a0360043516602435610a4a565b34801561035557600080fd5b506101d6600160a060020a0360043581169060243516610ae3565b34801561037c57600080fd5b50610391600160a060020a0360043516610b0e565b005b60035474010000000000000000000000000000000000000000900460ff1681565b6004805460408051602060026001851615610100026000190190941693909304601f8101849004840282018401909252818152929183018282801561043a5780601f1061040f5761010080835404028352916020019161043a565b820191906000526020600020905b81548152906001019060200180831161041d57829003601f168201915b505050505081565b336000818152600260209081526040808320600160a060020a038716808552908352818420869055815186815291519394909390927f8c5be1e5ebec7d5bd14f71427d1e84f3dd0314c0f7b2291e5b200ac8c7c3b925928290030190a350600192915050565b60005481565b6000600160a060020a03831615156104c557600080fd5b600160a060020a0384166000908152600160205260409020548211156104ea57600080fd5b600160a060020a038416600090815260026020908152604080832033845290915290205482111561051a57600080fd5b600160a060020a038416600090815260016020526040902054610543908363ffffffff610ba316565b600160a060020a038086166000908152600160205260408082209390935590851681522054610578908363ffffffff610bb516565b600160a060020a0380851660009081526001602090815260408083209490945591871681526002825282812033825290915220546105bc908363ffffffff610ba316565b600160a060020a03808616600081815260026020908152604080832033845282529182902094909455805186815290519287169391927fddf252ad1be2c89b69c2b068fc378daa952ba7f163c4a11628f55a4df523b3ef929181900390910190a35060019392505050565b60065460ff1681565b600354600090600160a060020a0316331461064a57600080fd5b60035474010000000000000000000000000000000000000000900460ff161561067257600080fd5b600054610685908363ffffffff610bb516565b6000908155600160a060020a0384168152600160205260409020546106b0908363ffffffff610bb516565b600160a060020a038416600081815260016020908152604091829020939093558051858152905191927f0f6798a560793a54c3bcfe86a93cde1e73087d944c0ea20544137d412139688592918290030190a2604080518381529051600160a060020a038516916000917fddf252ad1be2c89b69c2b068fc378daa952ba7f163c4a11628f55a4df523b3ef9181900360200190a350600192915050565b336000908152600260209081526040808320600160a060020a0386168452909152812054808311156107a157336000908152600260209081526040808320600160a060020a03881684529091528120556107d6565b6107b1818463ffffffff610ba316565b336000908152600260209081526040808320600160a060020a03891684529091529020555b336000818152600260209081526040808320600160a060020a0389168085529083529281902054815190815290519293927f8c5be1e5ebec7d5bd14f71427d1e84f3dd0314c0f7b2291e5b200ac8c7c3b925929181900390910190a35060019392505050565b600160a060020a031660009081526001602052604090205490565b600354600090600160a060020a0316331461087157600080fd5b60035474010000000000000000000000000000000000000000900460ff161561089957600080fd5b6003805474ff00000000000000000000000000000000000000001916740100000000000000000000000000000000000000001790556040517fae5184fba832cb2b1f702aca6117b8d265eaf03ad33eb133f19dde0f5920fa0890600090a150600190565b600354600160a060020a031681565b6005805460408051602060026001851615610100026000190190941693909304601f8101849004840282018401909252818152929183018282801561043a5780601f1061040f5761010080835404028352916020019161043a565b6000600160a060020a038316151561097e57600080fd5b3360009081526001602052604090205482111561099a57600080fd5b336000908152600160205260409020546109ba908363ffffffff610ba316565b3360009081526001602052604080822092909255600160a060020a038516815220546109ec908363ffffffff610bb516565b600160a060020a0384166000818152600160209081526040918290209390935580518581529051919233927fddf252ad1be2c89b69c2b068fc378daa952ba7f163c4a11628f55a4df523b3ef9281900390910190a350600192915050565b336000908152600260209081526040808320600160a060020a0386168452909152812054610a7e908363ffffffff610bb516565b336000818152600260209081526040808320600160a060020a0389168085529083529281902085905580519485525191937f8c5be1e5ebec7d5bd14f71427d1e84f3dd0314c0f7b2291e5b200ac8c7c3b925929081900390910190a350600192915050565b600160a060020a03918216600090815260026020908152604080832093909416825291909152205490565b600354600160a060020a03163314610b2557600080fd5b600160a060020a0381161515610b3a57600080fd5b600354604051600160a060020a038084169216907f8be0079c531659141344cd1fd0a4f28419497f9722a3daafe3b4186f6b6457e090600090a36003805473ffffffffffffffffffffffffffffffffffffffff1916600160a060020a0392909216919091179055565b600082821115610baf57fe5b50900390565b600082820183811015610bc457fe5b93925050505600a165627a7a72305820101bd9db99481af558e65c719dcf09b37067514fda50363e04c20fa9acce7e560029",
  "source": "pragma solidity ^0.4.18;\r\n\r\nimport './HashnodeToken.sol';\r\nimport '../node_modules/zeppelin-solidity/contracts/crowdsale/CappedCrowdsale.sol';\r\nimport '../node_modules/zeppelin-solidity/contracts/crowdsale/RefundableCrowdsale.sol';\r\n\r\ncontract HashnodeCrowdsale is CappedCrowdsale, RefundableCrowdsale{\r\n\r\n  // ICO Stage\r\n  // ============\r\n  enum CrowdsaleStage { PreICO, SecondBonus, ThirdBonus, FinalBonus, ICO }\r\n  CrowdsaleStage public stage = CrowdsaleStage.PreICO; // By default it's Pre Sale\r\n  // =============\r\n\r\n  // Token Distribution\r\n  // =============================\r\n  uint256 public maxTokens;// = 100000000000000000000; // There will be total 100 VPN Tokens 000000000000000000\r\n  uint256 public tokensForEcosystem;// = 20000000000000000000; // 10 VPN\r\n  uint256 public tokensForTeam;// = 10000000000000000000; // 10 VPN\r\n  uint256 public tokensForBountyAndAirDrop;// = 10000000000000000000; //30 VPN\r\n  uint256 public totalTokensForSale;// = 40000000000000000000; // 50 VPNs will be sold in Crowdsale\r\n  uint256 public totalTokensForSaleDuringPreICO;// = 20000000000000000000; // 20 VPN out of 60 VPN will be sold during PreICO\r\n  // ==============================\r\n\r\n  // Amount raised in PreICO\r\n  // ==================\r\n  uint256 public totalWeiRaisedDuringPreICO;\r\n  // ===================\r\n\r\n\r\n  // Bonuses variables\r\n  uint256 ratePreICOBonus;\r\n  uint256 rateSecondRoundBonus;\r\n  uint256 rateThirdRoundBonus;\r\n  uint256 rateFinalRoundBonus;\r\n  //=======================\r\n\r\n  //hold the current rate\r\n  uint256 public previousRate;\r\n\r\n\r\n  // Events\r\n  event EthTransferred(string text);\r\n  event EthRefunded(string text);\r\n\r\n\r\n  // Constructor\r\n  // ============\r\n  function HashnodeCrowdsale(\r\n  uint256 _startTime, //Start Date for CrowdSale\r\n  uint256 _endTime, //End of CrowdSale\r\n  uint256 _rate, // rate per ETH\r\n  address _wallet, // beneficiary address\r\n  uint256 _goal, // Goal funds for ETH or Minimum Capital answer in wei (ex 10000000000000000000 = 10 ETH)\r\n  uint256 _cap, // Max Capital for ETH, answer in wei (ex 500000000000000000000 wei = 500 ETH)\r\n  \r\n  // Total Supply\r\n  uint256 _maxTokens, // 100  \r\n  //Token Distribution\r\n  uint256[5] _forDistribution,\r\n  /*\r\n  uint256 _tokenForEcosystem, // ex 10\r\n  uint256 _tokenForTeam, // ex 10\r\n  uint256 _tokenForBountyAndAirdrop, // ex 30\r\n  uint256 _totalTokenForSale, // ex 50\r\n  uint256 _totalTokenForSaleDuringPreICO, //ex 20\r\n  */\r\n  \r\n\r\n\r\n  // ICO Specs\r\n  /*\r\n  string _name, // VPN Cash Coin\r\n  string _symbol, // VPN\r\n  uint8 _decimals, // Decimals (ex 18)\r\n*/\r\n  //Bonuses\r\n  uint256[4] _forBonus\r\n\r\n\r\n\r\n  ) CappedCrowdsale(_cap) FinalizableCrowdsale() RefundableCrowdsale(_goal) Crowdsale(_startTime, _endTime, _rate, _wallet) public {\r\n      require(_goal <= _cap);\r\n      maxTokens = valueInWei(_maxTokens);\r\n      tokensForEcosystem = valueInWei(_forDistribution[0]); \r\n      tokensForTeam = valueInWei(_forDistribution[1]); \r\n      tokensForBountyAndAirDrop = valueInWei(_forDistribution[2]); \r\n      totalTokensForSale = valueInWei(_forDistribution[3]); \r\n      totalTokensForSaleDuringPreICO = valueInWei(_forDistribution[4]); \r\n      /*\r\n      name = _name;\r\n      symbol = _symbol;\r\n      decimals = _decimals;\r\n      */\r\n      ratePreICOBonus = _forBonus[0]; // 40 percent +\r\n      rateSecondRoundBonus = _forBonus[1]; // 30 percent +\r\n      rateThirdRoundBonus = _forBonus[2]; // 20 percent +\r\n      rateFinalRoundBonus = _forBonus[3]; // 10 percent +\r\n\r\n      /**/\r\n      previousRate = _rate;\r\n\r\n      setCrowdsaleStage(0);\r\n      \r\n  }\r\n\r\n  function valueInWei(uint256 _value) internal returns(uint256){\r\n      \r\n      return _value * 10 ** uint256(18);\r\n  }\r\n  // =============\r\n  \r\n\r\n\r\n\r\n\r\n  // Token Deployment\r\n  // =================\r\n  function createTokenContract() internal returns (MintableToken) {\r\n    return new HashnodeToken(); // Deploys the ERC20 token. Automatically called when crowdsale contract is deployed\r\n  }\r\n  // ==================\r\n\r\n  // Crowdsale Stage Management\r\n  // =========================================================\r\n\r\n  // Change Crowdsale Stage. Available Options: PreICO, ICO\r\n  function setCrowdsaleStage(uint value) public onlyOwner {\r\n\r\n      CrowdsaleStage _stage;\r\n      uint256 bonusRate;\r\n      if (uint(CrowdsaleStage.PreICO) == value) {\r\n        _stage = CrowdsaleStage.PreICO;\r\n      } else if (uint(CrowdsaleStage.SecondBonus) == value) {\r\n        _stage = CrowdsaleStage.SecondBonus;\r\n      } else if (uint(CrowdsaleStage.ThirdBonus) == value) {\r\n        _stage = CrowdsaleStage.ThirdBonus;\r\n      } else if (uint(CrowdsaleStage.FinalBonus) == value) {\r\n        _stage = CrowdsaleStage.FinalBonus;\r\n      } else if (uint(CrowdsaleStage.ICO) == value) {\r\n        _stage = CrowdsaleStage.ICO;\r\n      }\r\n\r\n      stage = _stage;\r\n\r\n      if (stage == CrowdsaleStage.PreICO) {\r\n        bonusRate = previousRate +  _percentageBonus(ratePreICOBonus);\r\n        setCurrentRate(bonusRate);\r\n        \r\n      } else if (stage == CrowdsaleStage.SecondBonus) {\r\n        bonusRate = previousRate +  _percentageBonus(rateSecondRoundBonus);\r\n        setCurrentRate(bonusRate);\r\n        \r\n      } else if (stage == CrowdsaleStage.ThirdBonus) {\r\n        bonusRate = previousRate +  _percentageBonus(rateThirdRoundBonus);\r\n        setCurrentRate(bonusRate);\r\n        \r\n      } else if (stage == CrowdsaleStage.FinalBonus) {\r\n        bonusRate = previousRate +  _percentageBonus(rateFinalRoundBonus);\r\n        setCurrentRate(bonusRate);\r\n        \r\n      } else if (stage == CrowdsaleStage.ICO) {\r\n        setCurrentRate(previousRate);\r\n      }\r\n  }\r\n\r\n  //Bonus rate \r\n  function _percentageBonus(uint256 _percent) internal returns (uint256){\r\n      //manual percentage using this formula \"(rate * percentage) / 100\"\r\n      uint _ans = (previousRate * _percent) / 100;\r\n      return _ans;\r\n  }\r\n\r\n  // Change the current rate\r\n  function setCurrentRate(uint256 _rate) private {\r\n      rate = _rate;\r\n  }\r\n\r\n  // ================ Stage Management Over =====================\r\n\r\n  // Token Purchase\r\n  // =========================\r\n  function () external payable {\r\n      uint256 tokensThatWillBeMintedAfterPurchase = msg.value.mul(rate);\r\n      if ((stage == CrowdsaleStage.PreICO) && (token.totalSupply() + tokensThatWillBeMintedAfterPurchase > totalTokensForSaleDuringPreICO)) {\r\n        msg.sender.transfer(msg.value); // Refund them\r\n        EthRefunded(\"PreICO Limit Hit\");\r\n        return;\r\n      }\r\n\r\n      buyTokens(msg.sender);\r\n\r\n      if (stage == CrowdsaleStage.PreICO) {\r\n          totalWeiRaisedDuringPreICO = totalWeiRaisedDuringPreICO.add(msg.value);\r\n      }\r\n  }\r\n\r\n  function forwardFunds() internal {\r\n      if (stage == CrowdsaleStage.PreICO) {\r\n          wallet.transfer(msg.value);\r\n          EthTransferred(\"forwarding funds to wallet\");\r\n      } else if (stage == CrowdsaleStage.ICO) {\r\n          EthTransferred(\"forwarding funds to refundable vault\");\r\n          super.forwardFunds();\r\n      }\r\n  }\r\n  // ===========================\r\n\r\n  // Finish: Mint Extra Tokens as needed before finalizing the Crowdsale.\r\n  // ====================================================================\r\n\r\n  function finish(address _teamFund, address _ecosystemFund, address _bountyFund) public onlyOwner {\r\n\r\n      require(!isFinalized);\r\n      uint256 alreadyMinted = token.totalSupply();\r\n      require(alreadyMinted < maxTokens);\r\n\r\n      uint256 unsoldTokens = totalTokensForSale - alreadyMinted;\r\n      if (unsoldTokens > 0) {\r\n        tokensForEcosystem = tokensForEcosystem + unsoldTokens;\r\n      }\r\n\r\n      token.mint(_teamFund,tokensForTeam);\r\n      token.mint(_ecosystemFund,tokensForEcosystem);\r\n      token.mint(_bountyFund,tokensForBountyAndAirDrop);\r\n      finalize();\r\n  }\r\n  // ===============================\r\n\r\n  // REMOVE THIS FUNCTION ONCE YOU ARE READY FOR PRODUCTION\r\n  // USEFUL FOR TESTING `finish()` FUNCTION\r\n  //function hasEnded() public view returns (bool) {\r\n  //  return true;\r\n  //}\r\n}",
  "sourcePath": "D:\\CrowdsaleContract\\contracts\\HashnodeCrowdsale.sol",
  "compiler": {
    "name": "solc",
    "version": "0.4.24+commit.e67f0147.Emscripten.clang"
  },
  "schemaVersion": "2.0.0",
  "updatedAt": "2018-06-21T06:14:27.296Z"
}